{
	"OverseasTransaction.sol": {
		"OverseasTransaction": {
			"abi": [
				{
					"inputs": [
						{
							"internalType": "address",
							"name": "_seller",
							"type": "address"
						},
						{
							"internalType": "uint256",
							"name": "_transactionAmount",
							"type": "uint256"
						}
					],
					"stateMutability": "payable",
					"type": "constructor"
				},
				{
					"anonymous": false,
					"inputs": [
						{
							"indexed": true,
							"internalType": "address",
							"name": "buyer",
							"type": "address"
						},
						{
							"indexed": false,
							"internalType": "uint256",
							"name": "amount",
							"type": "uint256"
						}
					],
					"name": "FundsDeposited",
					"type": "event"
				},
				{
					"anonymous": false,
					"inputs": [
						{
							"indexed": true,
							"internalType": "address",
							"name": "seller",
							"type": "address"
						},
						{
							"indexed": false,
							"internalType": "uint256",
							"name": "amount",
							"type": "uint256"
						}
					],
					"name": "FundsReleased",
					"type": "event"
				},
				{
					"anonymous": false,
					"inputs": [
						{
							"indexed": true,
							"internalType": "address",
							"name": "buyer",
							"type": "address"
						}
					],
					"name": "GoodsReceived",
					"type": "event"
				},
				{
					"anonymous": false,
					"inputs": [
						{
							"indexed": true,
							"internalType": "address",
							"name": "buyer",
							"type": "address"
						},
						{
							"indexed": true,
							"internalType": "address",
							"name": "seller",
							"type": "address"
						},
						{
							"indexed": false,
							"internalType": "uint256",
							"name": "amount",
							"type": "uint256"
						}
					],
					"name": "TransactionCreated",
					"type": "event"
				},
				{
					"stateMutability": "payable",
					"type": "fallback"
				},
				{
					"inputs": [],
					"name": "buyer",
					"outputs": [
						{
							"internalType": "address",
							"name": "",
							"type": "address"
						}
					],
					"stateMutability": "view",
					"type": "function"
				},
				{
					"inputs": [],
					"name": "confirmReceipt",
					"outputs": [],
					"stateMutability": "nonpayable",
					"type": "function"
				},
				{
					"inputs": [],
					"name": "depositFunds",
					"outputs": [],
					"stateMutability": "payable",
					"type": "function"
				},
				{
					"inputs": [],
					"name": "goodsReceived",
					"outputs": [
						{
							"internalType": "bool",
							"name": "",
							"type": "bool"
						}
					],
					"stateMutability": "view",
					"type": "function"
				},
				{
					"inputs": [],
					"name": "seller",
					"outputs": [
						{
							"internalType": "address",
							"name": "",
							"type": "address"
						}
					],
					"stateMutability": "view",
					"type": "function"
				},
				{
					"inputs": [],
					"name": "transactionAmount",
					"outputs": [
						{
							"internalType": "uint256",
							"name": "",
							"type": "uint256"
						}
					],
					"stateMutability": "view",
					"type": "function"
				},
				{
					"inputs": [],
					"name": "withdrawFunds",
					"outputs": [],
					"stateMutability": "nonpayable",
					"type": "function"
				},
				{
					"stateMutability": "payable",
					"type": "receive"
				}
			],
			"devdoc": {
				"kind": "dev",
				"methods": {},
				"version": 1
			},
			"evm": {
				"assembly": "    /* \"OverseasTransaction.sol\":60:3342  contract OverseasTransaction {... */\n  mstore(0x40, 0xc0)\n    /* \"OverseasTransaction.sol\":1204:1793  constructor(address _seller, uint _transactionAmount) payable {... */\n  mload(0x40)\n  sub(codesize, bytecodeSize)\n  dup1\n  bytecodeSize\n  dup4\n  codecopy\n  dup2\n  dup2\n  add\n  0x40\n  mstore\n  dup2\n  add\n  swap1\n  tag_1\n  swap2\n  swap1\n  tag_2\n  jump\t// in\ntag_1:\n    /* \"OverseasTransaction.sol\":1304:1305  0 */\n  0x00\n    /* \"OverseasTransaction.sol\":1285:1306  _seller != address(0) */\n  0xffffffffffffffffffffffffffffffffffffffff\n  and\n    /* \"OverseasTransaction.sol\":1285:1292  _seller */\n  dup3\n    /* \"OverseasTransaction.sol\":1285:1306  _seller != address(0) */\n  0xffffffffffffffffffffffffffffffffffffffff\n  and\n  sub\n    /* \"OverseasTransaction.sol\":1277:1340  require(_seller != address(0), \"Seller address cannot be zero\") */\n  tag_5\n  jumpi\n  mload(0x40)\n  0x08c379a000000000000000000000000000000000000000000000000000000000\n  dup2\n  mstore\n  0x04\n  add\n  tag_6\n  swap1\n  tag_7\n  jump\t// in\ntag_6:\n  mload(0x40)\n  dup1\n  swap2\n  sub\n  swap1\n  revert\ntag_5:\n    /* \"OverseasTransaction.sol\":1380:1381  0 */\n  0x00\n    /* \"OverseasTransaction.sol\":1359:1377  _transactionAmount */\n  dup2\n    /* \"OverseasTransaction.sol\":1359:1381  _transactionAmount > 0 */\n  gt\n    /* \"OverseasTransaction.sol\":1351:1430  require(_transactionAmount > 0, \"Transaction amount must be greater than zero\") */\n  tag_8\n  jumpi\n  mload(0x40)\n  0x08c379a000000000000000000000000000000000000000000000000000000000\n  dup2\n  mstore\n  0x04\n  add\n  tag_9\n  swap1\n  tag_10\n  jump\t// in\ntag_9:\n  mload(0x40)\n  dup1\n  swap2\n  sub\n  swap1\n  revert\ntag_8:\n    /* \"OverseasTransaction.sol\":1451:1461  msg.sender */\n  caller\n    /* \"OverseasTransaction.sol\":1443:1461  buyer = msg.sender */\n  0xffffffffffffffffffffffffffffffffffffffff\n  and\n  0x80\n  dup2\n  0xffffffffffffffffffffffffffffffffffffffff\n  and\n  dup2\n  mstore\n  pop\n  pop\n    /* \"OverseasTransaction.sol\":1545:1552  _seller */\n  dup2\n    /* \"OverseasTransaction.sol\":1536:1552  seller = _seller */\n  0xffffffffffffffffffffffffffffffffffffffff\n  and\n  0xa0\n  dup2\n  0xffffffffffffffffffffffffffffffffffffffff\n  and\n  dup2\n  mstore\n  pop\n  pop\n    /* \"OverseasTransaction.sol\":1636:1654  _transactionAmount */\n  dup1\n    /* \"OverseasTransaction.sol\":1616:1633  transactionAmount */\n  0x00\n    /* \"OverseasTransaction.sol\":1616:1654  transactionAmount = _transactionAmount */\n  dup2\n  swap1\n  sstore\n  pop\n    /* \"OverseasTransaction.sol\":1731:1737  seller */\n  mload(0xa0)\n    /* \"OverseasTransaction.sol\":1705:1758  TransactionCreated(buyer, seller, _transactionAmount) */\n  0xffffffffffffffffffffffffffffffffffffffff\n  and\n    /* \"OverseasTransaction.sol\":1724:1729  buyer */\n  mload(0x80)\n    /* \"OverseasTransaction.sol\":1705:1758  TransactionCreated(buyer, seller, _transactionAmount) */\n  0xffffffffffffffffffffffffffffffffffffffff\n  and\n  0x878e1a8a7ee638d3050b311026ea6730c31a9bf9c4d0dc6ea2a3922927fabd62\n    /* \"OverseasTransaction.sol\":1739:1757  _transactionAmount */\n  dup4\n    /* \"OverseasTransaction.sol\":1705:1758  TransactionCreated(buyer, seller, _transactionAmount) */\n  mload(0x40)\n  tag_11\n  swap2\n  swap1\n  tag_12\n  jump\t// in\ntag_11:\n  mload(0x40)\n  dup1\n  swap2\n  sub\n  swap1\n  log3\n    /* \"OverseasTransaction.sol\":1204:1793  constructor(address _seller, uint _transactionAmount) payable {... */\n  pop\n  pop\n    /* \"OverseasTransaction.sol\":60:3342  contract OverseasTransaction {... */\n  jump(tag_13)\n    /* \"#utility.yul\":88:205   */\ntag_15:\n    /* \"#utility.yul\":197:198   */\n  0x00\n    /* \"#utility.yul\":194:195   */\n  dup1\n    /* \"#utility.yul\":187:199   */\n  revert\n    /* \"#utility.yul\":334:460   */\ntag_17:\n    /* \"#utility.yul\":371:378   */\n  0x00\n    /* \"#utility.yul\":411:453   */\n  0xffffffffffffffffffffffffffffffffffffffff\n    /* \"#utility.yul\":404:409   */\n  dup3\n    /* \"#utility.yul\":400:454   */\n  and\n    /* \"#utility.yul\":389:454   */\n  swap1\n  pop\n    /* \"#utility.yul\":334:460   */\n  swap2\n  swap1\n  pop\n  jump\t// out\n    /* \"#utility.yul\":466:562   */\ntag_18:\n    /* \"#utility.yul\":503:510   */\n  0x00\n    /* \"#utility.yul\":532:556   */\n  tag_36\n    /* \"#utility.yul\":550:555   */\n  dup3\n    /* \"#utility.yul\":532:556   */\n  tag_17\n  jump\t// in\ntag_36:\n    /* \"#utility.yul\":521:556   */\n  swap1\n  pop\n    /* \"#utility.yul\":466:562   */\n  swap2\n  swap1\n  pop\n  jump\t// out\n    /* \"#utility.yul\":568:690   */\ntag_19:\n    /* \"#utility.yul\":641:665   */\n  tag_38\n    /* \"#utility.yul\":659:664   */\n  dup2\n    /* \"#utility.yul\":641:665   */\n  tag_18\n  jump\t// in\ntag_38:\n    /* \"#utility.yul\":634:639   */\n  dup2\n    /* \"#utility.yul\":631:666   */\n  eq\n    /* \"#utility.yul\":621:684   */\n  tag_39\n  jumpi\n    /* \"#utility.yul\":680:681   */\n  0x00\n    /* \"#utility.yul\":677:678   */\n  dup1\n    /* \"#utility.yul\":670:682   */\n  revert\n    /* \"#utility.yul\":621:684   */\ntag_39:\n    /* \"#utility.yul\":568:690   */\n  pop\n  jump\t// out\n    /* \"#utility.yul\":696:839   */\ntag_20:\n    /* \"#utility.yul\":753:758   */\n  0x00\n    /* \"#utility.yul\":784:790   */\n  dup2\n    /* \"#utility.yul\":778:791   */\n  mload\n    /* \"#utility.yul\":769:791   */\n  swap1\n  pop\n    /* \"#utility.yul\":800:833   */\n  tag_41\n    /* \"#utility.yul\":827:832   */\n  dup2\n    /* \"#utility.yul\":800:833   */\n  tag_19\n  jump\t// in\ntag_41:\n    /* \"#utility.yul\":696:839   */\n  swap3\n  swap2\n  pop\n  pop\n  jump\t// out\n    /* \"#utility.yul\":845:922   */\ntag_21:\n    /* \"#utility.yul\":882:889   */\n  0x00\n    /* \"#utility.yul\":911:916   */\n  dup2\n    /* \"#utility.yul\":900:916   */\n  swap1\n  pop\n    /* \"#utility.yul\":845:922   */\n  swap2\n  swap1\n  pop\n  jump\t// out\n    /* \"#utility.yul\":928:1050   */\ntag_22:\n    /* \"#utility.yul\":1001:1025   */\n  tag_44\n    /* \"#utility.yul\":1019:1024   */\n  dup2\n    /* \"#utility.yul\":1001:1025   */\n  tag_21\n  jump\t// in\ntag_44:\n    /* \"#utility.yul\":994:999   */\n  dup2\n    /* \"#utility.yul\":991:1026   */\n  eq\n    /* \"#utility.yul\":981:1044   */\n  tag_45\n  jumpi\n    /* \"#utility.yul\":1040:1041   */\n  0x00\n    /* \"#utility.yul\":1037:1038   */\n  dup1\n    /* \"#utility.yul\":1030:1042   */\n  revert\n    /* \"#utility.yul\":981:1044   */\ntag_45:\n    /* \"#utility.yul\":928:1050   */\n  pop\n  jump\t// out\n    /* \"#utility.yul\":1056:1199   */\ntag_23:\n    /* \"#utility.yul\":1113:1118   */\n  0x00\n    /* \"#utility.yul\":1144:1150   */\n  dup2\n    /* \"#utility.yul\":1138:1151   */\n  mload\n    /* \"#utility.yul\":1129:1151   */\n  swap1\n  pop\n    /* \"#utility.yul\":1160:1193   */\n  tag_47\n    /* \"#utility.yul\":1187:1192   */\n  dup2\n    /* \"#utility.yul\":1160:1193   */\n  tag_22\n  jump\t// in\ntag_47:\n    /* \"#utility.yul\":1056:1199   */\n  swap3\n  swap2\n  pop\n  pop\n  jump\t// out\n    /* \"#utility.yul\":1205:1712   */\ntag_2:\n    /* \"#utility.yul\":1284:1290   */\n  0x00\n    /* \"#utility.yul\":1292:1298   */\n  dup1\n    /* \"#utility.yul\":1341:1343   */\n  0x40\n    /* \"#utility.yul\":1329:1338   */\n  dup4\n    /* \"#utility.yul\":1320:1327   */\n  dup6\n    /* \"#utility.yul\":1316:1339   */\n  sub\n    /* \"#utility.yul\":1312:1344   */\n  slt\n    /* \"#utility.yul\":1309:1428   */\n  iszero\n  tag_49\n  jumpi\n    /* \"#utility.yul\":1347:1426   */\n  tag_50\n  tag_15\n  jump\t// in\ntag_50:\n    /* \"#utility.yul\":1309:1428   */\ntag_49:\n    /* \"#utility.yul\":1467:1468   */\n  0x00\n    /* \"#utility.yul\":1492:1556   */\n  tag_51\n    /* \"#utility.yul\":1548:1555   */\n  dup6\n    /* \"#utility.yul\":1539:1545   */\n  dup3\n    /* \"#utility.yul\":1528:1537   */\n  dup7\n    /* \"#utility.yul\":1524:1546   */\n  add\n    /* \"#utility.yul\":1492:1556   */\n  tag_20\n  jump\t// in\ntag_51:\n    /* \"#utility.yul\":1482:1556   */\n  swap3\n  pop\n    /* \"#utility.yul\":1438:1566   */\n  pop\n    /* \"#utility.yul\":1605:1607   */\n  0x20\n    /* \"#utility.yul\":1631:1695   */\n  tag_52\n    /* \"#utility.yul\":1687:1694   */\n  dup6\n    /* \"#utility.yul\":1678:1684   */\n  dup3\n    /* \"#utility.yul\":1667:1676   */\n  dup7\n    /* \"#utility.yul\":1663:1685   */\n  add\n    /* \"#utility.yul\":1631:1695   */\n  tag_23\n  jump\t// in\ntag_52:\n    /* \"#utility.yul\":1621:1695   */\n  swap2\n  pop\n    /* \"#utility.yul\":1576:1705   */\n  pop\n    /* \"#utility.yul\":1205:1712   */\n  swap3\n  pop\n  swap3\n  swap1\n  pop\n  jump\t// out\n    /* \"#utility.yul\":1718:1887   */\ntag_24:\n    /* \"#utility.yul\":1802:1813   */\n  0x00\n    /* \"#utility.yul\":1836:1842   */\n  dup3\n    /* \"#utility.yul\":1831:1834   */\n  dup3\n    /* \"#utility.yul\":1824:1843   */\n  mstore\n    /* \"#utility.yul\":1876:1880   */\n  0x20\n    /* \"#utility.yul\":1871:1874   */\n  dup3\n    /* \"#utility.yul\":1867:1881   */\n  add\n    /* \"#utility.yul\":1852:1881   */\n  swap1\n  pop\n    /* \"#utility.yul\":1718:1887   */\n  swap3\n  swap2\n  pop\n  pop\n  jump\t// out\n    /* \"#utility.yul\":1893:2072   */\ntag_25:\n    /* \"#utility.yul\":2033:2064   */\n  0x53656c6c657220616464726573732063616e6e6f74206265207a65726f000000\n    /* \"#utility.yul\":2029:2030   */\n  0x00\n    /* \"#utility.yul\":2021:2027   */\n  dup3\n    /* \"#utility.yul\":2017:2031   */\n  add\n    /* \"#utility.yul\":2010:2065   */\n  mstore\n    /* \"#utility.yul\":1893:2072   */\n  pop\n  jump\t// out\n    /* \"#utility.yul\":2078:2444   */\ntag_26:\n    /* \"#utility.yul\":2220:2223   */\n  0x00\n    /* \"#utility.yul\":2241:2308   */\n  tag_56\n    /* \"#utility.yul\":2305:2307   */\n  0x1d\n    /* \"#utility.yul\":2300:2303   */\n  dup4\n    /* \"#utility.yul\":2241:2308   */\n  tag_24\n  jump\t// in\ntag_56:\n    /* \"#utility.yul\":2234:2308   */\n  swap2\n  pop\n    /* \"#utility.yul\":2317:2410   */\n  tag_57\n    /* \"#utility.yul\":2406:2409   */\n  dup3\n    /* \"#utility.yul\":2317:2410   */\n  tag_25\n  jump\t// in\ntag_57:\n    /* \"#utility.yul\":2435:2437   */\n  0x20\n    /* \"#utility.yul\":2430:2433   */\n  dup3\n    /* \"#utility.yul\":2426:2438   */\n  add\n    /* \"#utility.yul\":2419:2438   */\n  swap1\n  pop\n    /* \"#utility.yul\":2078:2444   */\n  swap2\n  swap1\n  pop\n  jump\t// out\n    /* \"#utility.yul\":2450:2869   */\ntag_7:\n    /* \"#utility.yul\":2616:2620   */\n  0x00\n    /* \"#utility.yul\":2654:2656   */\n  0x20\n    /* \"#utility.yul\":2643:2652   */\n  dup3\n    /* \"#utility.yul\":2639:2657   */\n  add\n    /* \"#utility.yul\":2631:2657   */\n  swap1\n  pop\n    /* \"#utility.yul\":2703:2712   */\n  dup2\n    /* \"#utility.yul\":2697:2701   */\n  dup2\n    /* \"#utility.yul\":2693:2713   */\n  sub\n    /* \"#utility.yul\":2689:2690   */\n  0x00\n    /* \"#utility.yul\":2678:2687   */\n  dup4\n    /* \"#utility.yul\":2674:2691   */\n  add\n    /* \"#utility.yul\":2667:2714   */\n  mstore\n    /* \"#utility.yul\":2731:2862   */\n  tag_59\n    /* \"#utility.yul\":2857:2861   */\n  dup2\n    /* \"#utility.yul\":2731:2862   */\n  tag_26\n  jump\t// in\ntag_59:\n    /* \"#utility.yul\":2723:2862   */\n  swap1\n  pop\n    /* \"#utility.yul\":2450:2869   */\n  swap2\n  swap1\n  pop\n  jump\t// out\n    /* \"#utility.yul\":2875:3106   */\ntag_27:\n    /* \"#utility.yul\":3015:3049   */\n  0x5472616e73616374696f6e20616d6f756e74206d757374206265206772656174\n    /* \"#utility.yul\":3011:3012   */\n  0x00\n    /* \"#utility.yul\":3003:3009   */\n  dup3\n    /* \"#utility.yul\":2999:3013   */\n  add\n    /* \"#utility.yul\":2992:3050   */\n  mstore\n    /* \"#utility.yul\":3084:3098   */\n  0x6572207468616e207a65726f0000000000000000000000000000000000000000\n    /* \"#utility.yul\":3079:3081   */\n  0x20\n    /* \"#utility.yul\":3071:3077   */\n  dup3\n    /* \"#utility.yul\":3067:3082   */\n  add\n    /* \"#utility.yul\":3060:3099   */\n  mstore\n    /* \"#utility.yul\":2875:3106   */\n  pop\n  jump\t// out\n    /* \"#utility.yul\":3112:3478   */\ntag_28:\n    /* \"#utility.yul\":3254:3257   */\n  0x00\n    /* \"#utility.yul\":3275:3342   */\n  tag_62\n    /* \"#utility.yul\":3339:3341   */\n  0x2c\n    /* \"#utility.yul\":3334:3337   */\n  dup4\n    /* \"#utility.yul\":3275:3342   */\n  tag_24\n  jump\t// in\ntag_62:\n    /* \"#utility.yul\":3268:3342   */\n  swap2\n  pop\n    /* \"#utility.yul\":3351:3444   */\n  tag_63\n    /* \"#utility.yul\":3440:3443   */\n  dup3\n    /* \"#utility.yul\":3351:3444   */\n  tag_27\n  jump\t// in\ntag_63:\n    /* \"#utility.yul\":3469:3471   */\n  0x40\n    /* \"#utility.yul\":3464:3467   */\n  dup3\n    /* \"#utility.yul\":3460:3472   */\n  add\n    /* \"#utility.yul\":3453:3472   */\n  swap1\n  pop\n    /* \"#utility.yul\":3112:3478   */\n  swap2\n  swap1\n  pop\n  jump\t// out\n    /* \"#utility.yul\":3484:3903   */\ntag_10:\n    /* \"#utility.yul\":3650:3654   */\n  0x00\n    /* \"#utility.yul\":3688:3690   */\n  0x20\n    /* \"#utility.yul\":3677:3686   */\n  dup3\n    /* \"#utility.yul\":3673:3691   */\n  add\n    /* \"#utility.yul\":3665:3691   */\n  swap1\n  pop\n    /* \"#utility.yul\":3737:3746   */\n  dup2\n    /* \"#utility.yul\":3731:3735   */\n  dup2\n    /* \"#utility.yul\":3727:3747   */\n  sub\n    /* \"#utility.yul\":3723:3724   */\n  0x00\n    /* \"#utility.yul\":3712:3721   */\n  dup4\n    /* \"#utility.yul\":3708:3725   */\n  add\n    /* \"#utility.yul\":3701:3748   */\n  mstore\n    /* \"#utility.yul\":3765:3896   */\n  tag_65\n    /* \"#utility.yul\":3891:3895   */\n  dup2\n    /* \"#utility.yul\":3765:3896   */\n  tag_28\n  jump\t// in\ntag_65:\n    /* \"#utility.yul\":3757:3896   */\n  swap1\n  pop\n    /* \"#utility.yul\":3484:3903   */\n  swap2\n  swap1\n  pop\n  jump\t// out\n    /* \"#utility.yul\":3909:4027   */\ntag_29:\n    /* \"#utility.yul\":3996:4020   */\n  tag_67\n    /* \"#utility.yul\":4014:4019   */\n  dup2\n    /* \"#utility.yul\":3996:4020   */\n  tag_21\n  jump\t// in\ntag_67:\n    /* \"#utility.yul\":3991:3994   */\n  dup3\n    /* \"#utility.yul\":3984:4021   */\n  mstore\n    /* \"#utility.yul\":3909:4027   */\n  pop\n  pop\n  jump\t// out\n    /* \"#utility.yul\":4033:4255   */\ntag_12:\n    /* \"#utility.yul\":4126:4130   */\n  0x00\n    /* \"#utility.yul\":4164:4166   */\n  0x20\n    /* \"#utility.yul\":4153:4162   */\n  dup3\n    /* \"#utility.yul\":4149:4167   */\n  add\n    /* \"#utility.yul\":4141:4167   */\n  swap1\n  pop\n    /* \"#utility.yul\":4177:4248   */\n  tag_69\n    /* \"#utility.yul\":4245:4246   */\n  0x00\n    /* \"#utility.yul\":4234:4243   */\n  dup4\n    /* \"#utility.yul\":4230:4247   */\n  add\n    /* \"#utility.yul\":4221:4227   */\n  dup5\n    /* \"#utility.yul\":4177:4248   */\n  tag_29\n  jump\t// in\ntag_69:\n    /* \"#utility.yul\":4033:4255   */\n  swap3\n  swap2\n  pop\n  pop\n  jump\t// out\n    /* \"OverseasTransaction.sol\":60:3342  contract OverseasTransaction {... */\ntag_13:\n  mload(0x80)\n  mload(0xa0)\n  codecopy(0x00, dataOffset(sub_0), dataSize(sub_0))\n  0x00\n  assignImmutable(\"0xceebf77a833b30520287ddd9478ff51abbdffa30aa90a8d655dba0e8a79ce0c1\")\n  0x00\n  assignImmutable(\"0x2a80e1ef1d7842f27f2e6be0972bb708b9a135c38860dbe73c27c3486c34f4de\")\n  return(0x00, dataSize(sub_0))\nstop\n\nsub_0: assembly {\n        /* \"OverseasTransaction.sol\":60:3342  contract OverseasTransaction {... */\n      mstore(0x40, 0x80)\n      jumpi(tag_1, lt(calldatasize, 0x04))\n      shr(0xe0, calldataload(0x00))\n      dup1\n      0x7150d8ae\n      gt\n      tag_10\n      jumpi\n      dup1\n      0x7150d8ae\n      eq\n      tag_6\n      jumpi\n      dup1\n      0x7d94ad98\n      eq\n      tag_7\n      jumpi\n      dup1\n      0xd942bffa\n      eq\n      tag_8\n      jumpi\n      dup1\n      0xe2c41dbc\n      eq\n      tag_9\n      jumpi\n      jump(tag_2)\n    tag_10:\n      dup1\n      0x08551a53\n      eq\n      tag_3\n      jumpi\n      dup1\n      0x24600fc3\n      eq\n      tag_4\n      jumpi\n      dup1\n      0x40a3faa3\n      eq\n      tag_5\n      jumpi\n      jump(tag_2)\n    tag_1:\n      jumpi(tag_2, calldatasize)\n      stop\n    tag_2:\n      stop\n        /* \"OverseasTransaction.sol\":191:222  address public immutable seller */\n    tag_3:\n      callvalue\n      dup1\n      iszero\n      tag_15\n      jumpi\n      0x00\n      dup1\n      revert\n    tag_15:\n      pop\n      tag_16\n      tag_17\n      jump\t// in\n    tag_16:\n      mload(0x40)\n      tag_18\n      swap2\n      swap1\n      tag_19\n      jump\t// in\n    tag_18:\n      mload(0x40)\n      dup1\n      swap2\n      sub\n      swap1\n      return\n        /* \"OverseasTransaction.sol\":2503:3115  function withdrawFunds() public onlySeller {... */\n    tag_4:\n      callvalue\n      dup1\n      iszero\n      tag_20\n      jumpi\n      0x00\n      dup1\n      revert\n    tag_20:\n      pop\n      tag_21\n      tag_22\n      jump\t// in\n    tag_21:\n      stop\n        /* \"OverseasTransaction.sol\":352:377  bool public goodsReceived */\n    tag_5:\n      callvalue\n      dup1\n      iszero\n      tag_23\n      jumpi\n      0x00\n      dup1\n      revert\n    tag_23:\n      pop\n      tag_24\n      tag_25\n      jump\t// in\n    tag_24:\n      mload(0x40)\n      tag_26\n      swap2\n      swap1\n      tag_27\n      jump\t// in\n    tag_26:\n      mload(0x40)\n      dup1\n      swap2\n      sub\n      swap1\n      return\n        /* \"OverseasTransaction.sol\":122:152  address public immutable buyer */\n    tag_6:\n      callvalue\n      dup1\n      iszero\n      tag_28\n      jumpi\n      0x00\n      dup1\n      revert\n    tag_28:\n      pop\n      tag_29\n      tag_30\n      jump\t// in\n    tag_29:\n      mload(0x40)\n      tag_31\n      swap2\n      swap1\n      tag_19\n      jump\t// in\n    tag_31:\n      mload(0x40)\n      dup1\n      swap2\n      sub\n      swap1\n      return\n        /* \"OverseasTransaction.sol\":2132:2436  function confirmReceipt() public onlyBuyer {... */\n    tag_7:\n      callvalue\n      dup1\n      iszero\n      tag_32\n      jumpi\n      0x00\n      dup1\n      revert\n    tag_32:\n      pop\n      tag_33\n      tag_34\n      jump\t// in\n    tag_33:\n      stop\n        /* \"OverseasTransaction.sol\":260:289  uint public transactionAmount */\n    tag_8:\n      callvalue\n      dup1\n      iszero\n      tag_35\n      jumpi\n      0x00\n      dup1\n      revert\n    tag_35:\n      pop\n      tag_36\n      tag_37\n      jump\t// in\n    tag_36:\n      mload(0x40)\n      tag_38\n      swap2\n      swap1\n      tag_39\n      jump\t// in\n    tag_38:\n      mload(0x40)\n      dup1\n      swap2\n      sub\n      swap1\n      return\n        /* \"OverseasTransaction.sol\":1848:2084  function depositFunds() public payable onlyBuyer {... */\n    tag_9:\n      tag_40\n      tag_41\n      jump\t// in\n    tag_40:\n      stop\n        /* \"OverseasTransaction.sol\":191:222  address public immutable seller */\n    tag_17:\n      immutable(\"0xceebf77a833b30520287ddd9478ff51abbdffa30aa90a8d655dba0e8a79ce0c1\")\n      dup2\n      jump\t// out\n        /* \"OverseasTransaction.sol\":2503:3115  function withdrawFunds() public onlySeller {... */\n    tag_22:\n        /* \"OverseasTransaction.sol\":1035:1041  seller */\n      immutable(\"0xceebf77a833b30520287ddd9478ff51abbdffa30aa90a8d655dba0e8a79ce0c1\")\n        /* \"OverseasTransaction.sol\":1021:1041  msg.sender == seller */\n      0xffffffffffffffffffffffffffffffffffffffff\n      and\n        /* \"OverseasTransaction.sol\":1021:1031  msg.sender */\n      caller\n        /* \"OverseasTransaction.sol\":1021:1041  msg.sender == seller */\n      0xffffffffffffffffffffffffffffffffffffffff\n      and\n      eq\n        /* \"OverseasTransaction.sol\":1013:1086  require(msg.sender == seller, \"Only the seller can perform this action.\") */\n      tag_43\n      jumpi\n      mload(0x40)\n      0x08c379a000000000000000000000000000000000000000000000000000000000\n      dup2\n      mstore\n      0x04\n      add\n      tag_44\n      swap1\n      tag_45\n      jump\t// in\n    tag_44:\n      mload(0x40)\n      dup1\n      swap2\n      sub\n      swap1\n      revert\n    tag_43:\n        /* \"OverseasTransaction.sol\":2565:2578  goodsReceived */\n      0x01\n      0x00\n      swap1\n      sload\n      swap1\n      0x0100\n      exp\n      swap1\n      div\n      0xff\n      and\n        /* \"OverseasTransaction.sol\":2557:2655  require(goodsReceived, \"Goods must be confirmed received by the buyer before funds are released.\") */\n      tag_47\n      jumpi\n      mload(0x40)\n      0x08c379a000000000000000000000000000000000000000000000000000000000\n      dup2\n      mstore\n      0x04\n      add\n      tag_48\n      swap1\n      tag_49\n      jump\t// in\n    tag_48:\n      mload(0x40)\n      dup1\n      swap2\n      sub\n      swap1\n      revert\n    tag_47:\n        /* \"OverseasTransaction.sol\":2666:2677  uint amount */\n      0x00\n        /* \"OverseasTransaction.sol\":2680:2697  transactionAmount */\n      dup1\n      sload\n        /* \"OverseasTransaction.sol\":2666:2697  uint amount = transactionAmount */\n      swap1\n      pop\n        /* \"OverseasTransaction.sol\":2776:2777  0 */\n      0x00\n        /* \"OverseasTransaction.sol\":2756:2773  transactionAmount */\n      dup1\n        /* \"OverseasTransaction.sol\":2756:2777  transactionAmount = 0 */\n      dup2\n      swap1\n      sstore\n      pop\n        /* \"OverseasTransaction.sol\":2857:2869  bool success */\n      0x00\n        /* \"OverseasTransaction.sol\":2875:2881  seller */\n      immutable(\"0xceebf77a833b30520287ddd9478ff51abbdffa30aa90a8d655dba0e8a79ce0c1\")\n        /* \"OverseasTransaction.sol\":2875:2886  seller.call */\n      0xffffffffffffffffffffffffffffffffffffffff\n      and\n        /* \"OverseasTransaction.sol\":2894:2900  amount */\n      dup3\n        /* \"OverseasTransaction.sol\":2875:2905  seller.call{value: amount}(\"\") */\n      mload(0x40)\n      tag_50\n      swap1\n      tag_51\n      jump\t// in\n    tag_50:\n      0x00\n      mload(0x40)\n      dup1\n      dup4\n      sub\n      dup2\n      dup6\n      dup8\n      gas\n      call\n      swap3\n      pop\n      pop\n      pop\n      returndatasize\n      dup1\n      0x00\n      dup2\n      eq\n      tag_54\n      jumpi\n      mload(0x40)\n      swap2\n      pop\n      and(add(returndatasize, 0x3f), not(0x1f))\n      dup3\n      add\n      0x40\n      mstore\n      returndatasize\n      dup3\n      mstore\n      returndatasize\n      0x00\n      0x20\n      dup5\n      add\n      returndatacopy\n      jump(tag_53)\n    tag_54:\n      0x60\n      swap2\n      pop\n    tag_53:\n      pop\n        /* \"OverseasTransaction.sol\":2856:2905  (bool success, ) = seller.call{value: amount}(\"\") */\n      pop\n      swap1\n      pop\n        /* \"OverseasTransaction.sol\":2962:2969  success */\n      dup1\n        /* \"OverseasTransaction.sol\":2954:2990  require(success, \"Transfer failed.\") */\n      tag_55\n      jumpi\n      mload(0x40)\n      0x08c379a000000000000000000000000000000000000000000000000000000000\n      dup2\n      mstore\n      0x04\n      add\n      tag_56\n      swap1\n      tag_57\n      jump\t// in\n    tag_56:\n      mload(0x40)\n      dup1\n      swap2\n      sub\n      swap1\n      revert\n    tag_55:\n        /* \"OverseasTransaction.sol\":3061:3067  seller */\n      immutable(\"0xceebf77a833b30520287ddd9478ff51abbdffa30aa90a8d655dba0e8a79ce0c1\")\n        /* \"OverseasTransaction.sol\":3047:3076  FundsReleased(seller, amount) */\n      0xffffffffffffffffffffffffffffffffffffffff\n      and\n      0x221c08a06b07a64803b3787861a3f276212fcccb51c2e6234077a9b8cb13047a\n        /* \"OverseasTransaction.sol\":3069:3075  amount */\n      dup4\n        /* \"OverseasTransaction.sol\":3047:3076  FundsReleased(seller, amount) */\n      mload(0x40)\n      tag_58\n      swap2\n      swap1\n      tag_39\n      jump\t// in\n    tag_58:\n      mload(0x40)\n      dup1\n      swap2\n      sub\n      swap1\n      log2\n        /* \"OverseasTransaction.sol\":2546:3115  {... */\n      pop\n      pop\n        /* \"OverseasTransaction.sol\":2503:3115  function withdrawFunds() public onlySeller {... */\n      jump\t// out\n        /* \"OverseasTransaction.sol\":352:377  bool public goodsReceived */\n    tag_25:\n      0x01\n      0x00\n      swap1\n      sload\n      swap1\n      0x0100\n      exp\n      swap1\n      div\n      0xff\n      and\n      dup2\n      jump\t// out\n        /* \"OverseasTransaction.sol\":122:152  address public immutable buyer */\n    tag_30:\n      immutable(\"0x2a80e1ef1d7842f27f2e6be0972bb708b9a135c38860dbe73c27c3486c34f4de\")\n      dup2\n      jump\t// out\n        /* \"OverseasTransaction.sol\":2132:2436  function confirmReceipt() public onlyBuyer {... */\n    tag_34:\n        /* \"OverseasTransaction.sol\":838:843  buyer */\n      immutable(\"0x2a80e1ef1d7842f27f2e6be0972bb708b9a135c38860dbe73c27c3486c34f4de\")\n        /* \"OverseasTransaction.sol\":824:843  msg.sender == buyer */\n      0xffffffffffffffffffffffffffffffffffffffff\n      and\n        /* \"OverseasTransaction.sol\":824:834  msg.sender */\n      caller\n        /* \"OverseasTransaction.sol\":824:843  msg.sender == buyer */\n      0xffffffffffffffffffffffffffffffffffffffff\n      and\n      eq\n        /* \"OverseasTransaction.sol\":816:887  require(msg.sender == buyer, \"Only the buyer can perform this action.\") */\n      tag_60\n      jumpi\n      mload(0x40)\n      0x08c379a000000000000000000000000000000000000000000000000000000000\n      dup2\n      mstore\n      0x04\n      add\n      tag_61\n      swap1\n      tag_62\n      jump\t// in\n    tag_61:\n      mload(0x40)\n      dup1\n      swap2\n      sub\n      swap1\n      revert\n    tag_60:\n        /* \"OverseasTransaction.sol\":2195:2208  goodsReceived */\n      0x01\n      0x00\n      swap1\n      sload\n      swap1\n      0x0100\n      exp\n      swap1\n      div\n      0xff\n      and\n        /* \"OverseasTransaction.sol\":2194:2208  !goodsReceived */\n      iszero\n        /* \"OverseasTransaction.sol\":2186:2256  require(!goodsReceived, \"Goods have already been confirmed received.\") */\n      tag_64\n      jumpi\n      mload(0x40)\n      0x08c379a000000000000000000000000000000000000000000000000000000000\n      dup2\n      mstore\n      0x04\n      add\n      tag_65\n      swap1\n      tag_66\n      jump\t// in\n    tag_65:\n      mload(0x40)\n      dup1\n      swap2\n      sub\n      swap1\n      revert\n    tag_64:\n        /* \"OverseasTransaction.sol\":2283:2287  true */\n      0x01\n        /* \"OverseasTransaction.sol\":2267:2280  goodsReceived */\n      dup1\n      0x00\n        /* \"OverseasTransaction.sol\":2267:2287  goodsReceived = true */\n      0x0100\n      exp\n      dup2\n      sload\n      dup2\n      0xff\n      mul\n      not\n      and\n      swap1\n      dup4\n      iszero\n      iszero\n      mul\n      or\n      swap1\n      sstore\n      pop\n        /* \"OverseasTransaction.sol\":2378:2388  msg.sender */\n      caller\n        /* \"OverseasTransaction.sol\":2364:2389  GoodsReceived(msg.sender) */\n      0xffffffffffffffffffffffffffffffffffffffff\n      and\n      0x671cc46e3aa720d1c54ff96c99bcfc1afd0c31edb04e925babd0cd1f19547c7b\n      mload(0x40)\n      mload(0x40)\n      dup1\n      swap2\n      sub\n      swap1\n      log2\n        /* \"OverseasTransaction.sol\":2132:2436  function confirmReceipt() public onlyBuyer {... */\n      jump\t// out\n        /* \"OverseasTransaction.sol\":260:289  uint public transactionAmount */\n    tag_37:\n      sload(0x00)\n      dup2\n      jump\t// out\n        /* \"OverseasTransaction.sol\":1848:2084  function depositFunds() public payable onlyBuyer {... */\n    tag_41:\n        /* \"OverseasTransaction.sol\":838:843  buyer */\n      immutable(\"0x2a80e1ef1d7842f27f2e6be0972bb708b9a135c38860dbe73c27c3486c34f4de\")\n        /* \"OverseasTransaction.sol\":824:843  msg.sender == buyer */\n      0xffffffffffffffffffffffffffffffffffffffff\n      and\n        /* \"OverseasTransaction.sol\":824:834  msg.sender */\n      caller\n        /* \"OverseasTransaction.sol\":824:843  msg.sender == buyer */\n      0xffffffffffffffffffffffffffffffffffffffff\n      and\n      eq\n        /* \"OverseasTransaction.sol\":816:887  require(msg.sender == buyer, \"Only the buyer can perform this action.\") */\n      tag_68\n      jumpi\n      mload(0x40)\n      0x08c379a000000000000000000000000000000000000000000000000000000000\n      dup2\n      mstore\n      0x04\n      add\n      tag_69\n      swap1\n      tag_62\n      jump\t// in\n    tag_69:\n      mload(0x40)\n      dup1\n      swap2\n      sub\n      swap1\n      revert\n    tag_68:\n        /* \"OverseasTransaction.sol\":1929:1946  transactionAmount */\n      sload(0x00)\n        /* \"OverseasTransaction.sol\":1916:1925  msg.value */\n      callvalue\n        /* \"OverseasTransaction.sol\":1916:1946  msg.value == transactionAmount */\n      eq\n        /* \"OverseasTransaction.sol\":1908:1997  require(msg.value == transactionAmount, \"You must deposit the exact transaction amount.\") */\n      tag_71\n      jumpi\n      mload(0x40)\n      0x08c379a000000000000000000000000000000000000000000000000000000000\n      dup2\n      mstore\n      0x04\n      add\n      tag_72\n      swap1\n      tag_73\n      jump\t// in\n    tag_72:\n      mload(0x40)\n      dup1\n      swap2\n      sub\n      swap1\n      revert\n    tag_71:\n        /* \"OverseasTransaction.sol\":2028:2038  msg.sender */\n      caller\n        /* \"OverseasTransaction.sol\":2013:2050  FundsDeposited(msg.sender, msg.value) */\n      0xffffffffffffffffffffffffffffffffffffffff\n      and\n      0x543ba50a5eec5e6178218e364b1d0f396157b3c8fa278522c2cb7fd99407d474\n        /* \"OverseasTransaction.sol\":2040:2049  msg.value */\n      callvalue\n        /* \"OverseasTransaction.sol\":2013:2050  FundsDeposited(msg.sender, msg.value) */\n      mload(0x40)\n      tag_74\n      swap2\n      swap1\n      tag_39\n      jump\t// in\n    tag_74:\n      mload(0x40)\n      dup1\n      swap2\n      sub\n      swap1\n      log2\n        /* \"OverseasTransaction.sol\":1848:2084  function depositFunds() public payable onlyBuyer {... */\n      jump\t// out\n        /* \"#utility.yul\":7:133   */\n    tag_75:\n        /* \"#utility.yul\":44:51   */\n      0x00\n        /* \"#utility.yul\":84:126   */\n      0xffffffffffffffffffffffffffffffffffffffff\n        /* \"#utility.yul\":77:82   */\n      dup3\n        /* \"#utility.yul\":73:127   */\n      and\n        /* \"#utility.yul\":62:127   */\n      swap1\n      pop\n        /* \"#utility.yul\":7:133   */\n      swap2\n      swap1\n      pop\n      jump\t// out\n        /* \"#utility.yul\":139:235   */\n    tag_76:\n        /* \"#utility.yul\":176:183   */\n      0x00\n        /* \"#utility.yul\":205:229   */\n      tag_101\n        /* \"#utility.yul\":223:228   */\n      dup3\n        /* \"#utility.yul\":205:229   */\n      tag_75\n      jump\t// in\n    tag_101:\n        /* \"#utility.yul\":194:229   */\n      swap1\n      pop\n        /* \"#utility.yul\":139:235   */\n      swap2\n      swap1\n      pop\n      jump\t// out\n        /* \"#utility.yul\":241:359   */\n    tag_77:\n        /* \"#utility.yul\":328:352   */\n      tag_103\n        /* \"#utility.yul\":346:351   */\n      dup2\n        /* \"#utility.yul\":328:352   */\n      tag_76\n      jump\t// in\n    tag_103:\n        /* \"#utility.yul\":323:326   */\n      dup3\n        /* \"#utility.yul\":316:353   */\n      mstore\n        /* \"#utility.yul\":241:359   */\n      pop\n      pop\n      jump\t// out\n        /* \"#utility.yul\":365:587   */\n    tag_19:\n        /* \"#utility.yul\":458:462   */\n      0x00\n        /* \"#utility.yul\":496:498   */\n      0x20\n        /* \"#utility.yul\":485:494   */\n      dup3\n        /* \"#utility.yul\":481:499   */\n      add\n        /* \"#utility.yul\":473:499   */\n      swap1\n      pop\n        /* \"#utility.yul\":509:580   */\n      tag_105\n        /* \"#utility.yul\":577:578   */\n      0x00\n        /* \"#utility.yul\":566:575   */\n      dup4\n        /* \"#utility.yul\":562:579   */\n      add\n        /* \"#utility.yul\":553:559   */\n      dup5\n        /* \"#utility.yul\":509:580   */\n      tag_77\n      jump\t// in\n    tag_105:\n        /* \"#utility.yul\":365:587   */\n      swap3\n      swap2\n      pop\n      pop\n      jump\t// out\n        /* \"#utility.yul\":593:683   */\n    tag_78:\n        /* \"#utility.yul\":627:634   */\n      0x00\n        /* \"#utility.yul\":670:675   */\n      dup2\n        /* \"#utility.yul\":663:676   */\n      iszero\n        /* \"#utility.yul\":656:677   */\n      iszero\n        /* \"#utility.yul\":645:677   */\n      swap1\n      pop\n        /* \"#utility.yul\":593:683   */\n      swap2\n      swap1\n      pop\n      jump\t// out\n        /* \"#utility.yul\":689:798   */\n    tag_79:\n        /* \"#utility.yul\":770:791   */\n      tag_108\n        /* \"#utility.yul\":785:790   */\n      dup2\n        /* \"#utility.yul\":770:791   */\n      tag_78\n      jump\t// in\n    tag_108:\n        /* \"#utility.yul\":765:768   */\n      dup3\n        /* \"#utility.yul\":758:792   */\n      mstore\n        /* \"#utility.yul\":689:798   */\n      pop\n      pop\n      jump\t// out\n        /* \"#utility.yul\":804:1014   */\n    tag_27:\n        /* \"#utility.yul\":891:895   */\n      0x00\n        /* \"#utility.yul\":929:931   */\n      0x20\n        /* \"#utility.yul\":918:927   */\n      dup3\n        /* \"#utility.yul\":914:932   */\n      add\n        /* \"#utility.yul\":906:932   */\n      swap1\n      pop\n        /* \"#utility.yul\":942:1007   */\n      tag_110\n        /* \"#utility.yul\":1004:1005   */\n      0x00\n        /* \"#utility.yul\":993:1002   */\n      dup4\n        /* \"#utility.yul\":989:1006   */\n      add\n        /* \"#utility.yul\":980:986   */\n      dup5\n        /* \"#utility.yul\":942:1007   */\n      tag_79\n      jump\t// in\n    tag_110:\n        /* \"#utility.yul\":804:1014   */\n      swap3\n      swap2\n      pop\n      pop\n      jump\t// out\n        /* \"#utility.yul\":1020:1097   */\n    tag_80:\n        /* \"#utility.yul\":1057:1064   */\n      0x00\n        /* \"#utility.yul\":1086:1091   */\n      dup2\n        /* \"#utility.yul\":1075:1091   */\n      swap1\n      pop\n        /* \"#utility.yul\":1020:1097   */\n      swap2\n      swap1\n      pop\n      jump\t// out\n        /* \"#utility.yul\":1103:1221   */\n    tag_81:\n        /* \"#utility.yul\":1190:1214   */\n      tag_113\n        /* \"#utility.yul\":1208:1213   */\n      dup2\n        /* \"#utility.yul\":1190:1214   */\n      tag_80\n      jump\t// in\n    tag_113:\n        /* \"#utility.yul\":1185:1188   */\n      dup3\n        /* \"#utility.yul\":1178:1215   */\n      mstore\n        /* \"#utility.yul\":1103:1221   */\n      pop\n      pop\n      jump\t// out\n        /* \"#utility.yul\":1227:1449   */\n    tag_39:\n        /* \"#utility.yul\":1320:1324   */\n      0x00\n        /* \"#utility.yul\":1358:1360   */\n      0x20\n        /* \"#utility.yul\":1347:1356   */\n      dup3\n        /* \"#utility.yul\":1343:1361   */\n      add\n        /* \"#utility.yul\":1335:1361   */\n      swap1\n      pop\n        /* \"#utility.yul\":1371:1442   */\n      tag_115\n        /* \"#utility.yul\":1439:1440   */\n      0x00\n        /* \"#utility.yul\":1428:1437   */\n      dup4\n        /* \"#utility.yul\":1424:1441   */\n      add\n        /* \"#utility.yul\":1415:1421   */\n      dup5\n        /* \"#utility.yul\":1371:1442   */\n      tag_81\n      jump\t// in\n    tag_115:\n        /* \"#utility.yul\":1227:1449   */\n      swap3\n      swap2\n      pop\n      pop\n      jump\t// out\n        /* \"#utility.yul\":1455:1624   */\n    tag_82:\n        /* \"#utility.yul\":1539:1550   */\n      0x00\n        /* \"#utility.yul\":1573:1579   */\n      dup3\n        /* \"#utility.yul\":1568:1571   */\n      dup3\n        /* \"#utility.yul\":1561:1580   */\n      mstore\n        /* \"#utility.yul\":1613:1617   */\n      0x20\n        /* \"#utility.yul\":1608:1611   */\n      dup3\n        /* \"#utility.yul\":1604:1618   */\n      add\n        /* \"#utility.yul\":1589:1618   */\n      swap1\n      pop\n        /* \"#utility.yul\":1455:1624   */\n      swap3\n      swap2\n      pop\n      pop\n      jump\t// out\n        /* \"#utility.yul\":1630:1857   */\n    tag_83:\n        /* \"#utility.yul\":1770:1804   */\n      0x4f6e6c79207468652073656c6c65722063616e20706572666f726d2074686973\n        /* \"#utility.yul\":1766:1767   */\n      0x00\n        /* \"#utility.yul\":1758:1764   */\n      dup3\n        /* \"#utility.yul\":1754:1768   */\n      add\n        /* \"#utility.yul\":1747:1805   */\n      mstore\n        /* \"#utility.yul\":1839:1849   */\n      0x20616374696f6e2e000000000000000000000000000000000000000000000000\n        /* \"#utility.yul\":1834:1836   */\n      0x20\n        /* \"#utility.yul\":1826:1832   */\n      dup3\n        /* \"#utility.yul\":1822:1837   */\n      add\n        /* \"#utility.yul\":1815:1850   */\n      mstore\n        /* \"#utility.yul\":1630:1857   */\n      pop\n      jump\t// out\n        /* \"#utility.yul\":1863:2229   */\n    tag_84:\n        /* \"#utility.yul\":2005:2008   */\n      0x00\n        /* \"#utility.yul\":2026:2093   */\n      tag_119\n        /* \"#utility.yul\":2090:2092   */\n      0x28\n        /* \"#utility.yul\":2085:2088   */\n      dup4\n        /* \"#utility.yul\":2026:2093   */\n      tag_82\n      jump\t// in\n    tag_119:\n        /* \"#utility.yul\":2019:2093   */\n      swap2\n      pop\n        /* \"#utility.yul\":2102:2195   */\n      tag_120\n        /* \"#utility.yul\":2191:2194   */\n      dup3\n        /* \"#utility.yul\":2102:2195   */\n      tag_83\n      jump\t// in\n    tag_120:\n        /* \"#utility.yul\":2220:2222   */\n      0x40\n        /* \"#utility.yul\":2215:2218   */\n      dup3\n        /* \"#utility.yul\":2211:2223   */\n      add\n        /* \"#utility.yul\":2204:2223   */\n      swap1\n      pop\n        /* \"#utility.yul\":1863:2229   */\n      swap2\n      swap1\n      pop\n      jump\t// out\n        /* \"#utility.yul\":2235:2654   */\n    tag_45:\n        /* \"#utility.yul\":2401:2405   */\n      0x00\n        /* \"#utility.yul\":2439:2441   */\n      0x20\n        /* \"#utility.yul\":2428:2437   */\n      dup3\n        /* \"#utility.yul\":2424:2442   */\n      add\n        /* \"#utility.yul\":2416:2442   */\n      swap1\n      pop\n        /* \"#utility.yul\":2488:2497   */\n      dup2\n        /* \"#utility.yul\":2482:2486   */\n      dup2\n        /* \"#utility.yul\":2478:2498   */\n      sub\n        /* \"#utility.yul\":2474:2475   */\n      0x00\n        /* \"#utility.yul\":2463:2472   */\n      dup4\n        /* \"#utility.yul\":2459:2476   */\n      add\n        /* \"#utility.yul\":2452:2499   */\n      mstore\n        /* \"#utility.yul\":2516:2647   */\n      tag_122\n        /* \"#utility.yul\":2642:2646   */\n      dup2\n        /* \"#utility.yul\":2516:2647   */\n      tag_84\n      jump\t// in\n    tag_122:\n        /* \"#utility.yul\":2508:2647   */\n      swap1\n      pop\n        /* \"#utility.yul\":2235:2654   */\n      swap2\n      swap1\n      pop\n      jump\t// out\n        /* \"#utility.yul\":2660:2956   */\n    tag_85:\n        /* \"#utility.yul\":2800:2834   */\n      0x476f6f6473206d75737420626520636f6e6669726d6564207265636569766564\n        /* \"#utility.yul\":2796:2797   */\n      0x00\n        /* \"#utility.yul\":2788:2794   */\n      dup3\n        /* \"#utility.yul\":2784:2798   */\n      add\n        /* \"#utility.yul\":2777:2835   */\n      mstore\n        /* \"#utility.yul\":2869:2903   */\n      0x20627920746865206275796572206265666f72652066756e6473206172652072\n        /* \"#utility.yul\":2864:2866   */\n      0x20\n        /* \"#utility.yul\":2856:2862   */\n      dup3\n        /* \"#utility.yul\":2852:2867   */\n      add\n        /* \"#utility.yul\":2845:2904   */\n      mstore\n        /* \"#utility.yul\":2938:2948   */\n      0x656c65617365642e000000000000000000000000000000000000000000000000\n        /* \"#utility.yul\":2933:2935   */\n      0x40\n        /* \"#utility.yul\":2925:2931   */\n      dup3\n        /* \"#utility.yul\":2921:2936   */\n      add\n        /* \"#utility.yul\":2914:2949   */\n      mstore\n        /* \"#utility.yul\":2660:2956   */\n      pop\n      jump\t// out\n        /* \"#utility.yul\":2962:3328   */\n    tag_86:\n        /* \"#utility.yul\":3104:3107   */\n      0x00\n        /* \"#utility.yul\":3125:3192   */\n      tag_125\n        /* \"#utility.yul\":3189:3191   */\n      0x48\n        /* \"#utility.yul\":3184:3187   */\n      dup4\n        /* \"#utility.yul\":3125:3192   */\n      tag_82\n      jump\t// in\n    tag_125:\n        /* \"#utility.yul\":3118:3192   */\n      swap2\n      pop\n        /* \"#utility.yul\":3201:3294   */\n      tag_126\n        /* \"#utility.yul\":3290:3293   */\n      dup3\n        /* \"#utility.yul\":3201:3294   */\n      tag_85\n      jump\t// in\n    tag_126:\n        /* \"#utility.yul\":3319:3321   */\n      0x60\n        /* \"#utility.yul\":3314:3317   */\n      dup3\n        /* \"#utility.yul\":3310:3322   */\n      add\n        /* \"#utility.yul\":3303:3322   */\n      swap1\n      pop\n        /* \"#utility.yul\":2962:3328   */\n      swap2\n      swap1\n      pop\n      jump\t// out\n        /* \"#utility.yul\":3334:3753   */\n    tag_49:\n        /* \"#utility.yul\":3500:3504   */\n      0x00\n        /* \"#utility.yul\":3538:3540   */\n      0x20\n        /* \"#utility.yul\":3527:3536   */\n      dup3\n        /* \"#utility.yul\":3523:3541   */\n      add\n        /* \"#utility.yul\":3515:3541   */\n      swap1\n      pop\n        /* \"#utility.yul\":3587:3596   */\n      dup2\n        /* \"#utility.yul\":3581:3585   */\n      dup2\n        /* \"#utility.yul\":3577:3597   */\n      sub\n        /* \"#utility.yul\":3573:3574   */\n      0x00\n        /* \"#utility.yul\":3562:3571   */\n      dup4\n        /* \"#utility.yul\":3558:3575   */\n      add\n        /* \"#utility.yul\":3551:3598   */\n      mstore\n        /* \"#utility.yul\":3615:3746   */\n      tag_128\n        /* \"#utility.yul\":3741:3745   */\n      dup2\n        /* \"#utility.yul\":3615:3746   */\n      tag_86\n      jump\t// in\n    tag_128:\n        /* \"#utility.yul\":3607:3746   */\n      swap1\n      pop\n        /* \"#utility.yul\":3334:3753   */\n      swap2\n      swap1\n      pop\n      jump\t// out\n        /* \"#utility.yul\":3759:3906   */\n    tag_87:\n        /* \"#utility.yul\":3860:3871   */\n      0x00\n        /* \"#utility.yul\":3897:3900   */\n      dup2\n        /* \"#utility.yul\":3882:3900   */\n      swap1\n      pop\n        /* \"#utility.yul\":3759:3906   */\n      swap3\n      swap2\n      pop\n      pop\n      jump\t// out\n        /* \"#utility.yul\":3912:4026   */\n    tag_88:\n      pop\n      jump\t// out\n        /* \"#utility.yul\":4032:4430   */\n    tag_89:\n        /* \"#utility.yul\":4191:4194   */\n      0x00\n        /* \"#utility.yul\":4212:4295   */\n      tag_132\n        /* \"#utility.yul\":4293:4294   */\n      0x00\n        /* \"#utility.yul\":4288:4291   */\n      dup4\n        /* \"#utility.yul\":4212:4295   */\n      tag_87\n      jump\t// in\n    tag_132:\n        /* \"#utility.yul\":4205:4295   */\n      swap2\n      pop\n        /* \"#utility.yul\":4304:4397   */\n      tag_133\n        /* \"#utility.yul\":4393:4396   */\n      dup3\n        /* \"#utility.yul\":4304:4397   */\n      tag_88\n      jump\t// in\n    tag_133:\n        /* \"#utility.yul\":4422:4423   */\n      0x00\n        /* \"#utility.yul\":4417:4420   */\n      dup3\n        /* \"#utility.yul\":4413:4424   */\n      add\n        /* \"#utility.yul\":4406:4424   */\n      swap1\n      pop\n        /* \"#utility.yul\":4032:4430   */\n      swap2\n      swap1\n      pop\n      jump\t// out\n        /* \"#utility.yul\":4436:4815   */\n    tag_51:\n        /* \"#utility.yul\":4620:4623   */\n      0x00\n        /* \"#utility.yul\":4642:4789   */\n      tag_135\n        /* \"#utility.yul\":4785:4788   */\n      dup3\n        /* \"#utility.yul\":4642:4789   */\n      tag_89\n      jump\t// in\n    tag_135:\n        /* \"#utility.yul\":4635:4789   */\n      swap2\n      pop\n        /* \"#utility.yul\":4806:4809   */\n      dup2\n        /* \"#utility.yul\":4799:4809   */\n      swap1\n      pop\n        /* \"#utility.yul\":4436:4815   */\n      swap2\n      swap1\n      pop\n      jump\t// out\n        /* \"#utility.yul\":4821:4987   */\n    tag_90:\n        /* \"#utility.yul\":4961:4979   */\n      0x5472616e73666572206661696c65642e00000000000000000000000000000000\n        /* \"#utility.yul\":4957:4958   */\n      0x00\n        /* \"#utility.yul\":4949:4955   */\n      dup3\n        /* \"#utility.yul\":4945:4959   */\n      add\n        /* \"#utility.yul\":4938:4980   */\n      mstore\n        /* \"#utility.yul\":4821:4987   */\n      pop\n      jump\t// out\n        /* \"#utility.yul\":4993:5359   */\n    tag_91:\n        /* \"#utility.yul\":5135:5138   */\n      0x00\n        /* \"#utility.yul\":5156:5223   */\n      tag_138\n        /* \"#utility.yul\":5220:5222   */\n      0x10\n        /* \"#utility.yul\":5215:5218   */\n      dup4\n        /* \"#utility.yul\":5156:5223   */\n      tag_82\n      jump\t// in\n    tag_138:\n        /* \"#utility.yul\":5149:5223   */\n      swap2\n      pop\n        /* \"#utility.yul\":5232:5325   */\n      tag_139\n        /* \"#utility.yul\":5321:5324   */\n      dup3\n        /* \"#utility.yul\":5232:5325   */\n      tag_90\n      jump\t// in\n    tag_139:\n        /* \"#utility.yul\":5350:5352   */\n      0x20\n        /* \"#utility.yul\":5345:5348   */\n      dup3\n        /* \"#utility.yul\":5341:5353   */\n      add\n        /* \"#utility.yul\":5334:5353   */\n      swap1\n      pop\n        /* \"#utility.yul\":4993:5359   */\n      swap2\n      swap1\n      pop\n      jump\t// out\n        /* \"#utility.yul\":5365:5784   */\n    tag_57:\n        /* \"#utility.yul\":5531:5535   */\n      0x00\n        /* \"#utility.yul\":5569:5571   */\n      0x20\n        /* \"#utility.yul\":5558:5567   */\n      dup3\n        /* \"#utility.yul\":5554:5572   */\n      add\n        /* \"#utility.yul\":5546:5572   */\n      swap1\n      pop\n        /* \"#utility.yul\":5618:5627   */\n      dup2\n        /* \"#utility.yul\":5612:5616   */\n      dup2\n        /* \"#utility.yul\":5608:5628   */\n      sub\n        /* \"#utility.yul\":5604:5605   */\n      0x00\n        /* \"#utility.yul\":5593:5602   */\n      dup4\n        /* \"#utility.yul\":5589:5606   */\n      add\n        /* \"#utility.yul\":5582:5629   */\n      mstore\n        /* \"#utility.yul\":5646:5777   */\n      tag_141\n        /* \"#utility.yul\":5772:5776   */\n      dup2\n        /* \"#utility.yul\":5646:5777   */\n      tag_91\n      jump\t// in\n    tag_141:\n        /* \"#utility.yul\":5638:5777   */\n      swap1\n      pop\n        /* \"#utility.yul\":5365:5784   */\n      swap2\n      swap1\n      pop\n      jump\t// out\n        /* \"#utility.yul\":5790:6016   */\n    tag_92:\n        /* \"#utility.yul\":5930:5964   */\n      0x4f6e6c79207468652062757965722063616e20706572666f726d207468697320\n        /* \"#utility.yul\":5926:5927   */\n      0x00\n        /* \"#utility.yul\":5918:5924   */\n      dup3\n        /* \"#utility.yul\":5914:5928   */\n      add\n        /* \"#utility.yul\":5907:5965   */\n      mstore\n        /* \"#utility.yul\":5999:6008   */\n      0x616374696f6e2e00000000000000000000000000000000000000000000000000\n        /* \"#utility.yul\":5994:5996   */\n      0x20\n        /* \"#utility.yul\":5986:5992   */\n      dup3\n        /* \"#utility.yul\":5982:5997   */\n      add\n        /* \"#utility.yul\":5975:6009   */\n      mstore\n        /* \"#utility.yul\":5790:6016   */\n      pop\n      jump\t// out\n        /* \"#utility.yul\":6022:6388   */\n    tag_93:\n        /* \"#utility.yul\":6164:6167   */\n      0x00\n        /* \"#utility.yul\":6185:6252   */\n      tag_144\n        /* \"#utility.yul\":6249:6251   */\n      0x27\n        /* \"#utility.yul\":6244:6247   */\n      dup4\n        /* \"#utility.yul\":6185:6252   */\n      tag_82\n      jump\t// in\n    tag_144:\n        /* \"#utility.yul\":6178:6252   */\n      swap2\n      pop\n        /* \"#utility.yul\":6261:6354   */\n      tag_145\n        /* \"#utility.yul\":6350:6353   */\n      dup3\n        /* \"#utility.yul\":6261:6354   */\n      tag_92\n      jump\t// in\n    tag_145:\n        /* \"#utility.yul\":6379:6381   */\n      0x40\n        /* \"#utility.yul\":6374:6377   */\n      dup3\n        /* \"#utility.yul\":6370:6382   */\n      add\n        /* \"#utility.yul\":6363:6382   */\n      swap1\n      pop\n        /* \"#utility.yul\":6022:6388   */\n      swap2\n      swap1\n      pop\n      jump\t// out\n        /* \"#utility.yul\":6394:6813   */\n    tag_62:\n        /* \"#utility.yul\":6560:6564   */\n      0x00\n        /* \"#utility.yul\":6598:6600   */\n      0x20\n        /* \"#utility.yul\":6587:6596   */\n      dup3\n        /* \"#utility.yul\":6583:6601   */\n      add\n        /* \"#utility.yul\":6575:6601   */\n      swap1\n      pop\n        /* \"#utility.yul\":6647:6656   */\n      dup2\n        /* \"#utility.yul\":6641:6645   */\n      dup2\n        /* \"#utility.yul\":6637:6657   */\n      sub\n        /* \"#utility.yul\":6633:6634   */\n      0x00\n        /* \"#utility.yul\":6622:6631   */\n      dup4\n        /* \"#utility.yul\":6618:6635   */\n      add\n        /* \"#utility.yul\":6611:6658   */\n      mstore\n        /* \"#utility.yul\":6675:6806   */\n      tag_147\n        /* \"#utility.yul\":6801:6805   */\n      dup2\n        /* \"#utility.yul\":6675:6806   */\n      tag_93\n      jump\t// in\n    tag_147:\n        /* \"#utility.yul\":6667:6806   */\n      swap1\n      pop\n        /* \"#utility.yul\":6394:6813   */\n      swap2\n      swap1\n      pop\n      jump\t// out\n        /* \"#utility.yul\":6819:7049   */\n    tag_94:\n        /* \"#utility.yul\":6959:6993   */\n      0x476f6f6473206861766520616c7265616479206265656e20636f6e6669726d65\n        /* \"#utility.yul\":6955:6956   */\n      0x00\n        /* \"#utility.yul\":6947:6953   */\n      dup3\n        /* \"#utility.yul\":6943:6957   */\n      add\n        /* \"#utility.yul\":6936:6994   */\n      mstore\n        /* \"#utility.yul\":7028:7041   */\n      0x642072656365697665642e000000000000000000000000000000000000000000\n        /* \"#utility.yul\":7023:7025   */\n      0x20\n        /* \"#utility.yul\":7015:7021   */\n      dup3\n        /* \"#utility.yul\":7011:7026   */\n      add\n        /* \"#utility.yul\":7004:7042   */\n      mstore\n        /* \"#utility.yul\":6819:7049   */\n      pop\n      jump\t// out\n        /* \"#utility.yul\":7055:7421   */\n    tag_95:\n        /* \"#utility.yul\":7197:7200   */\n      0x00\n        /* \"#utility.yul\":7218:7285   */\n      tag_150\n        /* \"#utility.yul\":7282:7284   */\n      0x2b\n        /* \"#utility.yul\":7277:7280   */\n      dup4\n        /* \"#utility.yul\":7218:7285   */\n      tag_82\n      jump\t// in\n    tag_150:\n        /* \"#utility.yul\":7211:7285   */\n      swap2\n      pop\n        /* \"#utility.yul\":7294:7387   */\n      tag_151\n        /* \"#utility.yul\":7383:7386   */\n      dup3\n        /* \"#utility.yul\":7294:7387   */\n      tag_94\n      jump\t// in\n    tag_151:\n        /* \"#utility.yul\":7412:7414   */\n      0x40\n        /* \"#utility.yul\":7407:7410   */\n      dup3\n        /* \"#utility.yul\":7403:7415   */\n      add\n        /* \"#utility.yul\":7396:7415   */\n      swap1\n      pop\n        /* \"#utility.yul\":7055:7421   */\n      swap2\n      swap1\n      pop\n      jump\t// out\n        /* \"#utility.yul\":7427:7846   */\n    tag_66:\n        /* \"#utility.yul\":7593:7597   */\n      0x00\n        /* \"#utility.yul\":7631:7633   */\n      0x20\n        /* \"#utility.yul\":7620:7629   */\n      dup3\n        /* \"#utility.yul\":7616:7634   */\n      add\n        /* \"#utility.yul\":7608:7634   */\n      swap1\n      pop\n        /* \"#utility.yul\":7680:7689   */\n      dup2\n        /* \"#utility.yul\":7674:7678   */\n      dup2\n        /* \"#utility.yul\":7670:7690   */\n      sub\n        /* \"#utility.yul\":7666:7667   */\n      0x00\n        /* \"#utility.yul\":7655:7664   */\n      dup4\n        /* \"#utility.yul\":7651:7668   */\n      add\n        /* \"#utility.yul\":7644:7691   */\n      mstore\n        /* \"#utility.yul\":7708:7839   */\n      tag_153\n        /* \"#utility.yul\":7834:7838   */\n      dup2\n        /* \"#utility.yul\":7708:7839   */\n      tag_95\n      jump\t// in\n    tag_153:\n        /* \"#utility.yul\":7700:7839   */\n      swap1\n      pop\n        /* \"#utility.yul\":7427:7846   */\n      swap2\n      swap1\n      pop\n      jump\t// out\n        /* \"#utility.yul\":7852:8085   */\n    tag_96:\n        /* \"#utility.yul\":7992:8026   */\n      0x596f75206d757374206465706f73697420746865206578616374207472616e73\n        /* \"#utility.yul\":7988:7989   */\n      0x00\n        /* \"#utility.yul\":7980:7986   */\n      dup3\n        /* \"#utility.yul\":7976:7990   */\n      add\n        /* \"#utility.yul\":7969:8027   */\n      mstore\n        /* \"#utility.yul\":8061:8077   */\n      0x616374696f6e20616d6f756e742e000000000000000000000000000000000000\n        /* \"#utility.yul\":8056:8058   */\n      0x20\n        /* \"#utility.yul\":8048:8054   */\n      dup3\n        /* \"#utility.yul\":8044:8059   */\n      add\n        /* \"#utility.yul\":8037:8078   */\n      mstore\n        /* \"#utility.yul\":7852:8085   */\n      pop\n      jump\t// out\n        /* \"#utility.yul\":8091:8457   */\n    tag_97:\n        /* \"#utility.yul\":8233:8236   */\n      0x00\n        /* \"#utility.yul\":8254:8321   */\n      tag_156\n        /* \"#utility.yul\":8318:8320   */\n      0x2e\n        /* \"#utility.yul\":8313:8316   */\n      dup4\n        /* \"#utility.yul\":8254:8321   */\n      tag_82\n      jump\t// in\n    tag_156:\n        /* \"#utility.yul\":8247:8321   */\n      swap2\n      pop\n        /* \"#utility.yul\":8330:8423   */\n      tag_157\n        /* \"#utility.yul\":8419:8422   */\n      dup3\n        /* \"#utility.yul\":8330:8423   */\n      tag_96\n      jump\t// in\n    tag_157:\n        /* \"#utility.yul\":8448:8450   */\n      0x40\n        /* \"#utility.yul\":8443:8446   */\n      dup3\n        /* \"#utility.yul\":8439:8451   */\n      add\n        /* \"#utility.yul\":8432:8451   */\n      swap1\n      pop\n        /* \"#utility.yul\":8091:8457   */\n      swap2\n      swap1\n      pop\n      jump\t// out\n        /* \"#utility.yul\":8463:8882   */\n    tag_73:\n        /* \"#utility.yul\":8629:8633   */\n      0x00\n        /* \"#utility.yul\":8667:8669   */\n      0x20\n        /* \"#utility.yul\":8656:8665   */\n      dup3\n        /* \"#utility.yul\":8652:8670   */\n      add\n        /* \"#utility.yul\":8644:8670   */\n      swap1\n      pop\n        /* \"#utility.yul\":8716:8725   */\n      dup2\n        /* \"#utility.yul\":8710:8714   */\n      dup2\n        /* \"#utility.yul\":8706:8726   */\n      sub\n        /* \"#utility.yul\":8702:8703   */\n      0x00\n        /* \"#utility.yul\":8691:8700   */\n      dup4\n        /* \"#utility.yul\":8687:8704   */\n      add\n        /* \"#utility.yul\":8680:8727   */\n      mstore\n        /* \"#utility.yul\":8744:8875   */\n      tag_159\n        /* \"#utility.yul\":8870:8874   */\n      dup2\n        /* \"#utility.yul\":8744:8875   */\n      tag_97\n      jump\t// in\n    tag_159:\n        /* \"#utility.yul\":8736:8875   */\n      swap1\n      pop\n        /* \"#utility.yul\":8463:8882   */\n      swap2\n      swap1\n      pop\n      jump\t// out\n\n    auxdata: 0xa2646970667358221220ed05178afdef9bf82b2f62788260dc696facfcf02eb4a963402c87446f32b97964736f6c634300081a0033\n}\n",
				"bytecode": {
					"linkReferences": {},
					"object": "60c0604052604051610ec1380380610ec183398181016040528101906100259190610244565b5f73ffffffffffffffffffffffffffffffffffffffff168273ffffffffffffffffffffffffffffffffffffffff1603610093576040517f08c379a000000000000000000000000000000000000000000000000000000000815260040161008a906102dc565b60405180910390fd5b5f81116100d5576040517f08c379a00000000000000000000000000000000000000000000000000000000081526004016100cc9061036a565b60405180910390fd5b3373ffffffffffffffffffffffffffffffffffffffff1660808173ffffffffffffffffffffffffffffffffffffffff16815250508173ffffffffffffffffffffffffffffffffffffffff1660a08173ffffffffffffffffffffffffffffffffffffffff1681525050805f8190555060a05173ffffffffffffffffffffffffffffffffffffffff1660805173ffffffffffffffffffffffffffffffffffffffff167f878e1a8a7ee638d3050b311026ea6730c31a9bf9c4d0dc6ea2a3922927fabd62836040516101a49190610397565b60405180910390a350506103b0565b5f80fd5b5f73ffffffffffffffffffffffffffffffffffffffff82169050919050565b5f6101e0826101b7565b9050919050565b6101f0816101d6565b81146101fa575f80fd5b50565b5f8151905061020b816101e7565b92915050565b5f819050919050565b61022381610211565b811461022d575f80fd5b50565b5f8151905061023e8161021a565b92915050565b5f806040838503121561025a576102596101b3565b5b5f610267858286016101fd565b925050602061027885828601610230565b9150509250929050565b5f82825260208201905092915050565b7f53656c6c657220616464726573732063616e6e6f74206265207a65726f0000005f82015250565b5f6102c6601d83610282565b91506102d182610292565b602082019050919050565b5f6020820190508181035f8301526102f3816102ba565b9050919050565b7f5472616e73616374696f6e20616d6f756e74206d7573742062652067726561745f8201527f6572207468616e207a65726f0000000000000000000000000000000000000000602082015250565b5f610354602c83610282565b915061035f826102fa565b604082019050919050565b5f6020820190508181035f83015261038181610348565b9050919050565b61039181610211565b82525050565b5f6020820190506103aa5f830184610388565b92915050565b60805160a051610acd6103f45f395f818161015c0152818161018001528181610268015261032f01525f81816103b3015281816103d701526105170152610acd5ff3fe608060405260043610610073575f3560e01c80637150d8ae1161004d5780637150d8ae146100e65780637d94ad9814610110578063d942bffa14610126578063e2c41dbc146101505761007a565b806308551a531461007c57806324600fc3146100a657806340a3faa3146100bc5761007a565b3661007a57005b005b348015610087575f80fd5b5061009061015a565b60405161009d9190610675565b60405180910390f35b3480156100b1575f80fd5b506100ba61017e565b005b3480156100c7575f80fd5b506100d061039f565b6040516100dd91906106a8565b60405180910390f35b3480156100f1575f80fd5b506100fa6103b1565b6040516101079190610675565b60405180910390f35b34801561011b575f80fd5b506101246103d5565b005b348015610131575f80fd5b5061013a610510565b60405161014791906106d9565b60405180910390f35b610158610515565b005b7f000000000000000000000000000000000000000000000000000000000000000081565b7f000000000000000000000000000000000000000000000000000000000000000073ffffffffffffffffffffffffffffffffffffffff163373ffffffffffffffffffffffffffffffffffffffff161461020c576040517f08c379a000000000000000000000000000000000000000000000000000000000815260040161020390610772565b60405180910390fd5b60015f9054906101000a900460ff1661025a576040517f08c379a000000000000000000000000000000000000000000000000000000000815260040161025190610826565b60405180910390fd5b5f805490505f80819055505f7f000000000000000000000000000000000000000000000000000000000000000073ffffffffffffffffffffffffffffffffffffffff16826040516102aa90610871565b5f6040518083038185875af1925050503d805f81146102e4576040519150601f19603f3d011682016040523d82523d5f602084013e6102e9565b606091505b505090508061032d576040517f08c379a0000000000000000000000000000000000000000000000000000000008152600401610324906108cf565b60405180910390fd5b7f000000000000000000000000000000000000000000000000000000000000000073ffffffffffffffffffffffffffffffffffffffff167f221c08a06b07a64803b3787861a3f276212fcccb51c2e6234077a9b8cb13047a8360405161039391906106d9565b60405180910390a25050565b60015f9054906101000a900460ff1681565b7f000000000000000000000000000000000000000000000000000000000000000081565b7f000000000000000000000000000000000000000000000000000000000000000073ffffffffffffffffffffffffffffffffffffffff163373ffffffffffffffffffffffffffffffffffffffff1614610463576040517f08c379a000000000000000000000000000000000000000000000000000000000815260040161045a9061095d565b60405180910390fd5b60015f9054906101000a900460ff16156104b2576040517f08c379a00000000000000000000000000000000000000000000000000000000081526004016104a9906109eb565b60405180910390fd5b6001805f6101000a81548160ff0219169083151502179055503373ffffffffffffffffffffffffffffffffffffffff167f671cc46e3aa720d1c54ff96c99bcfc1afd0c31edb04e925babd0cd1f19547c7b60405160405180910390a2565b5f5481565b7f000000000000000000000000000000000000000000000000000000000000000073ffffffffffffffffffffffffffffffffffffffff163373ffffffffffffffffffffffffffffffffffffffff16146105a3576040517f08c379a000000000000000000000000000000000000000000000000000000000815260040161059a9061095d565b60405180910390fd5b5f5434146105e6576040517f08c379a00000000000000000000000000000000000000000000000000000000081526004016105dd90610a79565b60405180910390fd5b3373ffffffffffffffffffffffffffffffffffffffff167f543ba50a5eec5e6178218e364b1d0f396157b3c8fa278522c2cb7fd99407d4743460405161062c91906106d9565b60405180910390a2565b5f73ffffffffffffffffffffffffffffffffffffffff82169050919050565b5f61065f82610636565b9050919050565b61066f81610655565b82525050565b5f6020820190506106885f830184610666565b92915050565b5f8115159050919050565b6106a28161068e565b82525050565b5f6020820190506106bb5f830184610699565b92915050565b5f819050919050565b6106d3816106c1565b82525050565b5f6020820190506106ec5f8301846106ca565b92915050565b5f82825260208201905092915050565b7f4f6e6c79207468652073656c6c65722063616e20706572666f726d20746869735f8201527f20616374696f6e2e000000000000000000000000000000000000000000000000602082015250565b5f61075c6028836106f2565b915061076782610702565b604082019050919050565b5f6020820190508181035f83015261078981610750565b9050919050565b7f476f6f6473206d75737420626520636f6e6669726d65642072656365697665645f8201527f20627920746865206275796572206265666f72652066756e647320617265207260208201527f656c65617365642e000000000000000000000000000000000000000000000000604082015250565b5f6108106048836106f2565b915061081b82610790565b606082019050919050565b5f6020820190508181035f83015261083d81610804565b9050919050565b5f81905092915050565b50565b5f61085c5f83610844565b91506108678261084e565b5f82019050919050565b5f61087b82610851565b9150819050919050565b7f5472616e73666572206661696c65642e000000000000000000000000000000005f82015250565b5f6108b96010836106f2565b91506108c482610885565b602082019050919050565b5f6020820190508181035f8301526108e6816108ad565b9050919050565b7f4f6e6c79207468652062757965722063616e20706572666f726d2074686973205f8201527f616374696f6e2e00000000000000000000000000000000000000000000000000602082015250565b5f6109476027836106f2565b9150610952826108ed565b604082019050919050565b5f6020820190508181035f8301526109748161093b565b9050919050565b7f476f6f6473206861766520616c7265616479206265656e20636f6e6669726d655f8201527f642072656365697665642e000000000000000000000000000000000000000000602082015250565b5f6109d5602b836106f2565b91506109e08261097b565b604082019050919050565b5f6020820190508181035f830152610a02816109c9565b9050919050565b7f596f75206d757374206465706f73697420746865206578616374207472616e735f8201527f616374696f6e20616d6f756e742e000000000000000000000000000000000000602082015250565b5f610a63602e836106f2565b9150610a6e82610a09565b604082019050919050565b5f6020820190508181035f830152610a9081610a57565b905091905056fea2646970667358221220ed05178afdef9bf82b2f62788260dc696facfcf02eb4a963402c87446f32b97964736f6c634300081a0033",
					"opcodes": "PUSH1 0xC0 PUSH1 0x40 MSTORE PUSH1 0x40 MLOAD PUSH2 0xEC1 CODESIZE SUB DUP1 PUSH2 0xEC1 DUP4 CODECOPY DUP2 DUP2 ADD PUSH1 0x40 MSTORE DUP2 ADD SWAP1 PUSH2 0x25 SWAP2 SWAP1 PUSH2 0x244 JUMP JUMPDEST PUSH0 PUSH20 0xFFFFFFFFFFFFFFFFFFFFFFFFFFFFFFFFFFFFFFFF AND DUP3 PUSH20 0xFFFFFFFFFFFFFFFFFFFFFFFFFFFFFFFFFFFFFFFF AND SUB PUSH2 0x93 JUMPI PUSH1 0x40 MLOAD PUSH32 0x8C379A000000000000000000000000000000000000000000000000000000000 DUP2 MSTORE PUSH1 0x4 ADD PUSH2 0x8A SWAP1 PUSH2 0x2DC JUMP JUMPDEST PUSH1 0x40 MLOAD DUP1 SWAP2 SUB SWAP1 REVERT JUMPDEST PUSH0 DUP2 GT PUSH2 0xD5 JUMPI PUSH1 0x40 MLOAD PUSH32 0x8C379A000000000000000000000000000000000000000000000000000000000 DUP2 MSTORE PUSH1 0x4 ADD PUSH2 0xCC SWAP1 PUSH2 0x36A JUMP JUMPDEST PUSH1 0x40 MLOAD DUP1 SWAP2 SUB SWAP1 REVERT JUMPDEST CALLER PUSH20 0xFFFFFFFFFFFFFFFFFFFFFFFFFFFFFFFFFFFFFFFF AND PUSH1 0x80 DUP2 PUSH20 0xFFFFFFFFFFFFFFFFFFFFFFFFFFFFFFFFFFFFFFFF AND DUP2 MSTORE POP POP DUP2 PUSH20 0xFFFFFFFFFFFFFFFFFFFFFFFFFFFFFFFFFFFFFFFF AND PUSH1 0xA0 DUP2 PUSH20 0xFFFFFFFFFFFFFFFFFFFFFFFFFFFFFFFFFFFFFFFF AND DUP2 MSTORE POP POP DUP1 PUSH0 DUP2 SWAP1 SSTORE POP PUSH1 0xA0 MLOAD PUSH20 0xFFFFFFFFFFFFFFFFFFFFFFFFFFFFFFFFFFFFFFFF AND PUSH1 0x80 MLOAD PUSH20 0xFFFFFFFFFFFFFFFFFFFFFFFFFFFFFFFFFFFFFFFF AND PUSH32 0x878E1A8A7EE638D3050B311026EA6730C31A9BF9C4D0DC6EA2A3922927FABD62 DUP4 PUSH1 0x40 MLOAD PUSH2 0x1A4 SWAP2 SWAP1 PUSH2 0x397 JUMP JUMPDEST PUSH1 0x40 MLOAD DUP1 SWAP2 SUB SWAP1 LOG3 POP POP PUSH2 0x3B0 JUMP JUMPDEST PUSH0 DUP1 REVERT JUMPDEST PUSH0 PUSH20 0xFFFFFFFFFFFFFFFFFFFFFFFFFFFFFFFFFFFFFFFF DUP3 AND SWAP1 POP SWAP2 SWAP1 POP JUMP JUMPDEST PUSH0 PUSH2 0x1E0 DUP3 PUSH2 0x1B7 JUMP JUMPDEST SWAP1 POP SWAP2 SWAP1 POP JUMP JUMPDEST PUSH2 0x1F0 DUP2 PUSH2 0x1D6 JUMP JUMPDEST DUP2 EQ PUSH2 0x1FA JUMPI PUSH0 DUP1 REVERT JUMPDEST POP JUMP JUMPDEST PUSH0 DUP2 MLOAD SWAP1 POP PUSH2 0x20B DUP2 PUSH2 0x1E7 JUMP JUMPDEST SWAP3 SWAP2 POP POP JUMP JUMPDEST PUSH0 DUP2 SWAP1 POP SWAP2 SWAP1 POP JUMP JUMPDEST PUSH2 0x223 DUP2 PUSH2 0x211 JUMP JUMPDEST DUP2 EQ PUSH2 0x22D JUMPI PUSH0 DUP1 REVERT JUMPDEST POP JUMP JUMPDEST PUSH0 DUP2 MLOAD SWAP1 POP PUSH2 0x23E DUP2 PUSH2 0x21A JUMP JUMPDEST SWAP3 SWAP2 POP POP JUMP JUMPDEST PUSH0 DUP1 PUSH1 0x40 DUP4 DUP6 SUB SLT ISZERO PUSH2 0x25A JUMPI PUSH2 0x259 PUSH2 0x1B3 JUMP JUMPDEST JUMPDEST PUSH0 PUSH2 0x267 DUP6 DUP3 DUP7 ADD PUSH2 0x1FD JUMP JUMPDEST SWAP3 POP POP PUSH1 0x20 PUSH2 0x278 DUP6 DUP3 DUP7 ADD PUSH2 0x230 JUMP JUMPDEST SWAP2 POP POP SWAP3 POP SWAP3 SWAP1 POP JUMP JUMPDEST PUSH0 DUP3 DUP3 MSTORE PUSH1 0x20 DUP3 ADD SWAP1 POP SWAP3 SWAP2 POP POP JUMP JUMPDEST PUSH32 0x53656C6C657220616464726573732063616E6E6F74206265207A65726F000000 PUSH0 DUP3 ADD MSTORE POP JUMP JUMPDEST PUSH0 PUSH2 0x2C6 PUSH1 0x1D DUP4 PUSH2 0x282 JUMP JUMPDEST SWAP2 POP PUSH2 0x2D1 DUP3 PUSH2 0x292 JUMP JUMPDEST PUSH1 0x20 DUP3 ADD SWAP1 POP SWAP2 SWAP1 POP JUMP JUMPDEST PUSH0 PUSH1 0x20 DUP3 ADD SWAP1 POP DUP2 DUP2 SUB PUSH0 DUP4 ADD MSTORE PUSH2 0x2F3 DUP2 PUSH2 0x2BA JUMP JUMPDEST SWAP1 POP SWAP2 SWAP1 POP JUMP JUMPDEST PUSH32 0x5472616E73616374696F6E20616D6F756E74206D757374206265206772656174 PUSH0 DUP3 ADD MSTORE PUSH32 0x6572207468616E207A65726F0000000000000000000000000000000000000000 PUSH1 0x20 DUP3 ADD MSTORE POP JUMP JUMPDEST PUSH0 PUSH2 0x354 PUSH1 0x2C DUP4 PUSH2 0x282 JUMP JUMPDEST SWAP2 POP PUSH2 0x35F DUP3 PUSH2 0x2FA JUMP JUMPDEST PUSH1 0x40 DUP3 ADD SWAP1 POP SWAP2 SWAP1 POP JUMP JUMPDEST PUSH0 PUSH1 0x20 DUP3 ADD SWAP1 POP DUP2 DUP2 SUB PUSH0 DUP4 ADD MSTORE PUSH2 0x381 DUP2 PUSH2 0x348 JUMP JUMPDEST SWAP1 POP SWAP2 SWAP1 POP JUMP JUMPDEST PUSH2 0x391 DUP2 PUSH2 0x211 JUMP JUMPDEST DUP3 MSTORE POP POP JUMP JUMPDEST PUSH0 PUSH1 0x20 DUP3 ADD SWAP1 POP PUSH2 0x3AA PUSH0 DUP4 ADD DUP5 PUSH2 0x388 JUMP JUMPDEST SWAP3 SWAP2 POP POP JUMP JUMPDEST PUSH1 0x80 MLOAD PUSH1 0xA0 MLOAD PUSH2 0xACD PUSH2 0x3F4 PUSH0 CODECOPY PUSH0 DUP2 DUP2 PUSH2 0x15C ADD MSTORE DUP2 DUP2 PUSH2 0x180 ADD MSTORE DUP2 DUP2 PUSH2 0x268 ADD MSTORE PUSH2 0x32F ADD MSTORE PUSH0 DUP2 DUP2 PUSH2 0x3B3 ADD MSTORE DUP2 DUP2 PUSH2 0x3D7 ADD MSTORE PUSH2 0x517 ADD MSTORE PUSH2 0xACD PUSH0 RETURN INVALID PUSH1 0x80 PUSH1 0x40 MSTORE PUSH1 0x4 CALLDATASIZE LT PUSH2 0x73 JUMPI PUSH0 CALLDATALOAD PUSH1 0xE0 SHR DUP1 PUSH4 0x7150D8AE GT PUSH2 0x4D JUMPI DUP1 PUSH4 0x7150D8AE EQ PUSH2 0xE6 JUMPI DUP1 PUSH4 0x7D94AD98 EQ PUSH2 0x110 JUMPI DUP1 PUSH4 0xD942BFFA EQ PUSH2 0x126 JUMPI DUP1 PUSH4 0xE2C41DBC EQ PUSH2 0x150 JUMPI PUSH2 0x7A JUMP JUMPDEST DUP1 PUSH4 0x8551A53 EQ PUSH2 0x7C JUMPI DUP1 PUSH4 0x24600FC3 EQ PUSH2 0xA6 JUMPI DUP1 PUSH4 0x40A3FAA3 EQ PUSH2 0xBC JUMPI PUSH2 0x7A JUMP JUMPDEST CALLDATASIZE PUSH2 0x7A JUMPI STOP JUMPDEST STOP JUMPDEST CALLVALUE DUP1 ISZERO PUSH2 0x87 JUMPI PUSH0 DUP1 REVERT JUMPDEST POP PUSH2 0x90 PUSH2 0x15A JUMP JUMPDEST PUSH1 0x40 MLOAD PUSH2 0x9D SWAP2 SWAP1 PUSH2 0x675 JUMP JUMPDEST PUSH1 0x40 MLOAD DUP1 SWAP2 SUB SWAP1 RETURN JUMPDEST CALLVALUE DUP1 ISZERO PUSH2 0xB1 JUMPI PUSH0 DUP1 REVERT JUMPDEST POP PUSH2 0xBA PUSH2 0x17E JUMP JUMPDEST STOP JUMPDEST CALLVALUE DUP1 ISZERO PUSH2 0xC7 JUMPI PUSH0 DUP1 REVERT JUMPDEST POP PUSH2 0xD0 PUSH2 0x39F JUMP JUMPDEST PUSH1 0x40 MLOAD PUSH2 0xDD SWAP2 SWAP1 PUSH2 0x6A8 JUMP JUMPDEST PUSH1 0x40 MLOAD DUP1 SWAP2 SUB SWAP1 RETURN JUMPDEST CALLVALUE DUP1 ISZERO PUSH2 0xF1 JUMPI PUSH0 DUP1 REVERT JUMPDEST POP PUSH2 0xFA PUSH2 0x3B1 JUMP JUMPDEST PUSH1 0x40 MLOAD PUSH2 0x107 SWAP2 SWAP1 PUSH2 0x675 JUMP JUMPDEST PUSH1 0x40 MLOAD DUP1 SWAP2 SUB SWAP1 RETURN JUMPDEST CALLVALUE DUP1 ISZERO PUSH2 0x11B JUMPI PUSH0 DUP1 REVERT JUMPDEST POP PUSH2 0x124 PUSH2 0x3D5 JUMP JUMPDEST STOP JUMPDEST CALLVALUE DUP1 ISZERO PUSH2 0x131 JUMPI PUSH0 DUP1 REVERT JUMPDEST POP PUSH2 0x13A PUSH2 0x510 JUMP JUMPDEST PUSH1 0x40 MLOAD PUSH2 0x147 SWAP2 SWAP1 PUSH2 0x6D9 JUMP JUMPDEST PUSH1 0x40 MLOAD DUP1 SWAP2 SUB SWAP1 RETURN JUMPDEST PUSH2 0x158 PUSH2 0x515 JUMP JUMPDEST STOP JUMPDEST PUSH32 0x0 DUP2 JUMP JUMPDEST PUSH32 0x0 PUSH20 0xFFFFFFFFFFFFFFFFFFFFFFFFFFFFFFFFFFFFFFFF AND CALLER PUSH20 0xFFFFFFFFFFFFFFFFFFFFFFFFFFFFFFFFFFFFFFFF AND EQ PUSH2 0x20C JUMPI PUSH1 0x40 MLOAD PUSH32 0x8C379A000000000000000000000000000000000000000000000000000000000 DUP2 MSTORE PUSH1 0x4 ADD PUSH2 0x203 SWAP1 PUSH2 0x772 JUMP JUMPDEST PUSH1 0x40 MLOAD DUP1 SWAP2 SUB SWAP1 REVERT JUMPDEST PUSH1 0x1 PUSH0 SWAP1 SLOAD SWAP1 PUSH2 0x100 EXP SWAP1 DIV PUSH1 0xFF AND PUSH2 0x25A JUMPI PUSH1 0x40 MLOAD PUSH32 0x8C379A000000000000000000000000000000000000000000000000000000000 DUP2 MSTORE PUSH1 0x4 ADD PUSH2 0x251 SWAP1 PUSH2 0x826 JUMP JUMPDEST PUSH1 0x40 MLOAD DUP1 SWAP2 SUB SWAP1 REVERT JUMPDEST PUSH0 DUP1 SLOAD SWAP1 POP PUSH0 DUP1 DUP2 SWAP1 SSTORE POP PUSH0 PUSH32 0x0 PUSH20 0xFFFFFFFFFFFFFFFFFFFFFFFFFFFFFFFFFFFFFFFF AND DUP3 PUSH1 0x40 MLOAD PUSH2 0x2AA SWAP1 PUSH2 0x871 JUMP JUMPDEST PUSH0 PUSH1 0x40 MLOAD DUP1 DUP4 SUB DUP2 DUP6 DUP8 GAS CALL SWAP3 POP POP POP RETURNDATASIZE DUP1 PUSH0 DUP2 EQ PUSH2 0x2E4 JUMPI PUSH1 0x40 MLOAD SWAP2 POP PUSH1 0x1F NOT PUSH1 0x3F RETURNDATASIZE ADD AND DUP3 ADD PUSH1 0x40 MSTORE RETURNDATASIZE DUP3 MSTORE RETURNDATASIZE PUSH0 PUSH1 0x20 DUP5 ADD RETURNDATACOPY PUSH2 0x2E9 JUMP JUMPDEST PUSH1 0x60 SWAP2 POP JUMPDEST POP POP SWAP1 POP DUP1 PUSH2 0x32D JUMPI PUSH1 0x40 MLOAD PUSH32 0x8C379A000000000000000000000000000000000000000000000000000000000 DUP2 MSTORE PUSH1 0x4 ADD PUSH2 0x324 SWAP1 PUSH2 0x8CF JUMP JUMPDEST PUSH1 0x40 MLOAD DUP1 SWAP2 SUB SWAP1 REVERT JUMPDEST PUSH32 0x0 PUSH20 0xFFFFFFFFFFFFFFFFFFFFFFFFFFFFFFFFFFFFFFFF AND PUSH32 0x221C08A06B07A64803B3787861A3F276212FCCCB51C2E6234077A9B8CB13047A DUP4 PUSH1 0x40 MLOAD PUSH2 0x393 SWAP2 SWAP1 PUSH2 0x6D9 JUMP JUMPDEST PUSH1 0x40 MLOAD DUP1 SWAP2 SUB SWAP1 LOG2 POP POP JUMP JUMPDEST PUSH1 0x1 PUSH0 SWAP1 SLOAD SWAP1 PUSH2 0x100 EXP SWAP1 DIV PUSH1 0xFF AND DUP2 JUMP JUMPDEST PUSH32 0x0 DUP2 JUMP JUMPDEST PUSH32 0x0 PUSH20 0xFFFFFFFFFFFFFFFFFFFFFFFFFFFFFFFFFFFFFFFF AND CALLER PUSH20 0xFFFFFFFFFFFFFFFFFFFFFFFFFFFFFFFFFFFFFFFF AND EQ PUSH2 0x463 JUMPI PUSH1 0x40 MLOAD PUSH32 0x8C379A000000000000000000000000000000000000000000000000000000000 DUP2 MSTORE PUSH1 0x4 ADD PUSH2 0x45A SWAP1 PUSH2 0x95D JUMP JUMPDEST PUSH1 0x40 MLOAD DUP1 SWAP2 SUB SWAP1 REVERT JUMPDEST PUSH1 0x1 PUSH0 SWAP1 SLOAD SWAP1 PUSH2 0x100 EXP SWAP1 DIV PUSH1 0xFF AND ISZERO PUSH2 0x4B2 JUMPI PUSH1 0x40 MLOAD PUSH32 0x8C379A000000000000000000000000000000000000000000000000000000000 DUP2 MSTORE PUSH1 0x4 ADD PUSH2 0x4A9 SWAP1 PUSH2 0x9EB JUMP JUMPDEST PUSH1 0x40 MLOAD DUP1 SWAP2 SUB SWAP1 REVERT JUMPDEST PUSH1 0x1 DUP1 PUSH0 PUSH2 0x100 EXP DUP2 SLOAD DUP2 PUSH1 0xFF MUL NOT AND SWAP1 DUP4 ISZERO ISZERO MUL OR SWAP1 SSTORE POP CALLER PUSH20 0xFFFFFFFFFFFFFFFFFFFFFFFFFFFFFFFFFFFFFFFF AND PUSH32 0x671CC46E3AA720D1C54FF96C99BCFC1AFD0C31EDB04E925BABD0CD1F19547C7B PUSH1 0x40 MLOAD PUSH1 0x40 MLOAD DUP1 SWAP2 SUB SWAP1 LOG2 JUMP JUMPDEST PUSH0 SLOAD DUP2 JUMP JUMPDEST PUSH32 0x0 PUSH20 0xFFFFFFFFFFFFFFFFFFFFFFFFFFFFFFFFFFFFFFFF AND CALLER PUSH20 0xFFFFFFFFFFFFFFFFFFFFFFFFFFFFFFFFFFFFFFFF AND EQ PUSH2 0x5A3 JUMPI PUSH1 0x40 MLOAD PUSH32 0x8C379A000000000000000000000000000000000000000000000000000000000 DUP2 MSTORE PUSH1 0x4 ADD PUSH2 0x59A SWAP1 PUSH2 0x95D JUMP JUMPDEST PUSH1 0x40 MLOAD DUP1 SWAP2 SUB SWAP1 REVERT JUMPDEST PUSH0 SLOAD CALLVALUE EQ PUSH2 0x5E6 JUMPI PUSH1 0x40 MLOAD PUSH32 0x8C379A000000000000000000000000000000000000000000000000000000000 DUP2 MSTORE PUSH1 0x4 ADD PUSH2 0x5DD SWAP1 PUSH2 0xA79 JUMP JUMPDEST PUSH1 0x40 MLOAD DUP1 SWAP2 SUB SWAP1 REVERT JUMPDEST CALLER PUSH20 0xFFFFFFFFFFFFFFFFFFFFFFFFFFFFFFFFFFFFFFFF AND PUSH32 0x543BA50A5EEC5E6178218E364B1D0F396157B3C8FA278522C2CB7FD99407D474 CALLVALUE PUSH1 0x40 MLOAD PUSH2 0x62C SWAP2 SWAP1 PUSH2 0x6D9 JUMP JUMPDEST PUSH1 0x40 MLOAD DUP1 SWAP2 SUB SWAP1 LOG2 JUMP JUMPDEST PUSH0 PUSH20 0xFFFFFFFFFFFFFFFFFFFFFFFFFFFFFFFFFFFFFFFF DUP3 AND SWAP1 POP SWAP2 SWAP1 POP JUMP JUMPDEST PUSH0 PUSH2 0x65F DUP3 PUSH2 0x636 JUMP JUMPDEST SWAP1 POP SWAP2 SWAP1 POP JUMP JUMPDEST PUSH2 0x66F DUP2 PUSH2 0x655 JUMP JUMPDEST DUP3 MSTORE POP POP JUMP JUMPDEST PUSH0 PUSH1 0x20 DUP3 ADD SWAP1 POP PUSH2 0x688 PUSH0 DUP4 ADD DUP5 PUSH2 0x666 JUMP JUMPDEST SWAP3 SWAP2 POP POP JUMP JUMPDEST PUSH0 DUP2 ISZERO ISZERO SWAP1 POP SWAP2 SWAP1 POP JUMP JUMPDEST PUSH2 0x6A2 DUP2 PUSH2 0x68E JUMP JUMPDEST DUP3 MSTORE POP POP JUMP JUMPDEST PUSH0 PUSH1 0x20 DUP3 ADD SWAP1 POP PUSH2 0x6BB PUSH0 DUP4 ADD DUP5 PUSH2 0x699 JUMP JUMPDEST SWAP3 SWAP2 POP POP JUMP JUMPDEST PUSH0 DUP2 SWAP1 POP SWAP2 SWAP1 POP JUMP JUMPDEST PUSH2 0x6D3 DUP2 PUSH2 0x6C1 JUMP JUMPDEST DUP3 MSTORE POP POP JUMP JUMPDEST PUSH0 PUSH1 0x20 DUP3 ADD SWAP1 POP PUSH2 0x6EC PUSH0 DUP4 ADD DUP5 PUSH2 0x6CA JUMP JUMPDEST SWAP3 SWAP2 POP POP JUMP JUMPDEST PUSH0 DUP3 DUP3 MSTORE PUSH1 0x20 DUP3 ADD SWAP1 POP SWAP3 SWAP2 POP POP JUMP JUMPDEST PUSH32 0x4F6E6C79207468652073656C6C65722063616E20706572666F726D2074686973 PUSH0 DUP3 ADD MSTORE PUSH32 0x20616374696F6E2E000000000000000000000000000000000000000000000000 PUSH1 0x20 DUP3 ADD MSTORE POP JUMP JUMPDEST PUSH0 PUSH2 0x75C PUSH1 0x28 DUP4 PUSH2 0x6F2 JUMP JUMPDEST SWAP2 POP PUSH2 0x767 DUP3 PUSH2 0x702 JUMP JUMPDEST PUSH1 0x40 DUP3 ADD SWAP1 POP SWAP2 SWAP1 POP JUMP JUMPDEST PUSH0 PUSH1 0x20 DUP3 ADD SWAP1 POP DUP2 DUP2 SUB PUSH0 DUP4 ADD MSTORE PUSH2 0x789 DUP2 PUSH2 0x750 JUMP JUMPDEST SWAP1 POP SWAP2 SWAP1 POP JUMP JUMPDEST PUSH32 0x476F6F6473206D75737420626520636F6E6669726D6564207265636569766564 PUSH0 DUP3 ADD MSTORE PUSH32 0x20627920746865206275796572206265666F72652066756E6473206172652072 PUSH1 0x20 DUP3 ADD MSTORE PUSH32 0x656C65617365642E000000000000000000000000000000000000000000000000 PUSH1 0x40 DUP3 ADD MSTORE POP JUMP JUMPDEST PUSH0 PUSH2 0x810 PUSH1 0x48 DUP4 PUSH2 0x6F2 JUMP JUMPDEST SWAP2 POP PUSH2 0x81B DUP3 PUSH2 0x790 JUMP JUMPDEST PUSH1 0x60 DUP3 ADD SWAP1 POP SWAP2 SWAP1 POP JUMP JUMPDEST PUSH0 PUSH1 0x20 DUP3 ADD SWAP1 POP DUP2 DUP2 SUB PUSH0 DUP4 ADD MSTORE PUSH2 0x83D DUP2 PUSH2 0x804 JUMP JUMPDEST SWAP1 POP SWAP2 SWAP1 POP JUMP JUMPDEST PUSH0 DUP2 SWAP1 POP SWAP3 SWAP2 POP POP JUMP JUMPDEST POP JUMP JUMPDEST PUSH0 PUSH2 0x85C PUSH0 DUP4 PUSH2 0x844 JUMP JUMPDEST SWAP2 POP PUSH2 0x867 DUP3 PUSH2 0x84E JUMP JUMPDEST PUSH0 DUP3 ADD SWAP1 POP SWAP2 SWAP1 POP JUMP JUMPDEST PUSH0 PUSH2 0x87B DUP3 PUSH2 0x851 JUMP JUMPDEST SWAP2 POP DUP2 SWAP1 POP SWAP2 SWAP1 POP JUMP JUMPDEST PUSH32 0x5472616E73666572206661696C65642E00000000000000000000000000000000 PUSH0 DUP3 ADD MSTORE POP JUMP JUMPDEST PUSH0 PUSH2 0x8B9 PUSH1 0x10 DUP4 PUSH2 0x6F2 JUMP JUMPDEST SWAP2 POP PUSH2 0x8C4 DUP3 PUSH2 0x885 JUMP JUMPDEST PUSH1 0x20 DUP3 ADD SWAP1 POP SWAP2 SWAP1 POP JUMP JUMPDEST PUSH0 PUSH1 0x20 DUP3 ADD SWAP1 POP DUP2 DUP2 SUB PUSH0 DUP4 ADD MSTORE PUSH2 0x8E6 DUP2 PUSH2 0x8AD JUMP JUMPDEST SWAP1 POP SWAP2 SWAP1 POP JUMP JUMPDEST PUSH32 0x4F6E6C79207468652062757965722063616E20706572666F726D207468697320 PUSH0 DUP3 ADD MSTORE PUSH32 0x616374696F6E2E00000000000000000000000000000000000000000000000000 PUSH1 0x20 DUP3 ADD MSTORE POP JUMP JUMPDEST PUSH0 PUSH2 0x947 PUSH1 0x27 DUP4 PUSH2 0x6F2 JUMP JUMPDEST SWAP2 POP PUSH2 0x952 DUP3 PUSH2 0x8ED JUMP JUMPDEST PUSH1 0x40 DUP3 ADD SWAP1 POP SWAP2 SWAP1 POP JUMP JUMPDEST PUSH0 PUSH1 0x20 DUP3 ADD SWAP1 POP DUP2 DUP2 SUB PUSH0 DUP4 ADD MSTORE PUSH2 0x974 DUP2 PUSH2 0x93B JUMP JUMPDEST SWAP1 POP SWAP2 SWAP1 POP JUMP JUMPDEST PUSH32 0x476F6F6473206861766520616C7265616479206265656E20636F6E6669726D65 PUSH0 DUP3 ADD MSTORE PUSH32 0x642072656365697665642E000000000000000000000000000000000000000000 PUSH1 0x20 DUP3 ADD MSTORE POP JUMP JUMPDEST PUSH0 PUSH2 0x9D5 PUSH1 0x2B DUP4 PUSH2 0x6F2 JUMP JUMPDEST SWAP2 POP PUSH2 0x9E0 DUP3 PUSH2 0x97B JUMP JUMPDEST PUSH1 0x40 DUP3 ADD SWAP1 POP SWAP2 SWAP1 POP JUMP JUMPDEST PUSH0 PUSH1 0x20 DUP3 ADD SWAP1 POP DUP2 DUP2 SUB PUSH0 DUP4 ADD MSTORE PUSH2 0xA02 DUP2 PUSH2 0x9C9 JUMP JUMPDEST SWAP1 POP SWAP2 SWAP1 POP JUMP JUMPDEST PUSH32 0x596F75206D757374206465706F73697420746865206578616374207472616E73 PUSH0 DUP3 ADD MSTORE PUSH32 0x616374696F6E20616D6F756E742E000000000000000000000000000000000000 PUSH1 0x20 DUP3 ADD MSTORE POP JUMP JUMPDEST PUSH0 PUSH2 0xA63 PUSH1 0x2E DUP4 PUSH2 0x6F2 JUMP JUMPDEST SWAP2 POP PUSH2 0xA6E DUP3 PUSH2 0xA09 JUMP JUMPDEST PUSH1 0x40 DUP3 ADD SWAP1 POP SWAP2 SWAP1 POP JUMP JUMPDEST PUSH0 PUSH1 0x20 DUP3 ADD SWAP1 POP DUP2 DUP2 SUB PUSH0 DUP4 ADD MSTORE PUSH2 0xA90 DUP2 PUSH2 0xA57 JUMP JUMPDEST SWAP1 POP SWAP2 SWAP1 POP JUMP INVALID LOG2 PUSH5 0x6970667358 0x22 SLT KECCAK256 0xED SDIV OR DUP11 REVERT 0xEF SWAP12 0xF8 0x2B 0x2F PUSH3 0x788260 0xDC PUSH10 0x6FACFCF02EB4A963402C DUP8 PREVRANDAO PUSH16 0x32B97964736F6C634300081A00330000 "
				},
				"gasEstimates": {
					"creation": {
						"codeDepositCost": "553000",
						"executionCost": "infinite",
						"totalCost": "infinite"
					},
					"external": {
						"": "151",
						"buyer()": "infinite",
						"confirmReceipt()": "infinite",
						"depositFunds()": "infinite",
						"goodsReceived()": "2511",
						"seller()": "infinite",
						"transactionAmount()": "2468",
						"withdrawFunds()": "infinite"
					}
				},
				"methodIdentifiers": {
					"buyer()": "7150d8ae",
					"confirmReceipt()": "7d94ad98",
					"depositFunds()": "e2c41dbc",
					"goodsReceived()": "40a3faa3",
					"seller()": "08551a53",
					"transactionAmount()": "d942bffa",
					"withdrawFunds()": "24600fc3"
				}
			},
			"storageLayout": {
				"storage": [
					{
						"astId": 7,
						"contract": "OverseasTransaction.sol:OverseasTransaction",
						"label": "transactionAmount",
						"offset": 0,
						"slot": "0",
						"type": "t_uint256"
					},
					{
						"astId": 9,
						"contract": "OverseasTransaction.sol:OverseasTransaction",
						"label": "goodsReceived",
						"offset": 0,
						"slot": "1",
						"type": "t_bool"
					}
				],
				"types": {
					"t_bool": {
						"encoding": "inplace",
						"label": "bool",
						"numberOfBytes": "1"
					},
					"t_uint256": {
						"encoding": "inplace",
						"label": "uint256",
						"numberOfBytes": "32"
					}
				}
			},
			"userdoc": {
				"kind": "user",
				"methods": {},
				"version": 1
			}
		}
	}
}